:020000040800F2
:10000000601C0120C101000891280008892800080F
:100010008D280008A107000899450008000000008D
:10002000000000000000000000000000F93B000894
:10003000F52600080000000021290008C93D00083D
:10004000DB010008DB010008DB010008DB01000820
:10005000DB010008DB010008DB010008DB01000810
:10006000DB010008DB010008DB010008DB01000800
:10007000DB010008DB010008DB010008DB010008F0
:10008000DB010008DB010008DB010008DB010008E0
:10009000DB010008DB010008DB010008DB010008D0
:1000A000DB010008DB010008DB010008DB010008C0
:1000B000AD400008CD400008DB010008DB0100086E
:1000C000DB010008DB010008DB010008DB010008A0
:1000D000DB010008E1430008DB010008DB01000848
:1000E000DB010008DB010008DB010008DB01000880
:1000F000DB010008DB010008DB010008DB01000870
:10010000DB010008DB01000861410008DB01000899
:10011000DB010008DB010008DB010008F1410008F9
:10012000DB010008DB010008DB010008DB0100083F
:10013000DB010008DB010008DB010008DB0100082F
:10014000DB010008DB010008DB010008DB0100081F
:10015000DB0100081526000885260008BD440008BC
:10016000DB010008DB010008DB010008DB010008FF
:10017000DB010008DB010008DB01000800000000D3
:10018000DB010008DB010008DB010008DB010008DF
:10019000DB010008DB010008DB01000800000000B3
:1001A000DB010008DB010008DB010008DFF80CD0F0
:1001B00000F056FA00480047519C0008601C0120DE
:1001C0000648804706480047FEE7FEE7FEE7FEE7F1
:1001D000FEE7FEE7FEE7FEE7FEE7FEE7ED3E00088E
:1001E000AD01000810B5431A934209D2831888184C
:1001F00003E010F8011D03F8011D521EF9D210BDD5
:1002000040EA01039B0703D009E008C9121F08C098
:10021000042AFAD203E011F8013B00F8013B521E18
:10022000F9D210BDD2B201E000F8012B491EFBD279
:1002300070470022F6E710B513460A4604461946F1
:10024000FFF7F0FF204610BD30B5044600200346FE
:1002500000E05B1C934203D2E05CCD5C401BF8D015
:1002600030BD30B50B46014600202022012409E0B4
:1002700021FA02F59D4205D303FA02F5491B04FA5F
:1002800002F52844151EA2F10102F1DC30BD2DE972
:10029000F05F0546002092469B468846064681460A
:1002A00040241BE0284641464746224600F0F9F923
:1002B00053465A46C01A914110D311461846224659
:1002C00000F0E0F92D1A67EB01084F4622460120A5
:1002D000002100F0D7F917EB00094E41201EA4F1D0
:1002E0000104DFDC484631462A464346BDE8F09F1C
:1002F0002DE9FE4F804681EA0300C00F0C460090B6
:1003000021F0004123F00045B8EB0200A94105D2DD
:100310004046214690461C460B46024623F00040CC
:10032000104347D0270DC7F30A00C3F30A510290C8
:10033000401A019040286BDAC3F3130040F4801B8D
:100340000098924620B10023D2EB030A63EB0B0B1B
:1003500001985946C0F14002504600F093F9064614
:100360000D4650465946019A00F0ABF910EB0800D3
:100370006141002487EA115284EAE7731A4340D0AE
:10038000009A62B3019A012A4FEA075215DC001B5A
:1003900061EB02014FF0004202EA0752CDE9004250
:1003A000001C41F5801132462B4600F0ABF903B03A
:1003B000BDE8F08F40462146F9E7001B61EB0201E2
:1003C000001C41F5801300185B412018A2F50017AE
:1003D00047EB030140EAD570B6196D4111E06D0895
:1003E0004FEA360645EAC0754FEA0752001B61EB3B
:1003F0000201001C41F5801149084FEA3000001944
:10040000514132462B4603B0BDE8F04F00F06BB9C6
:100410000098012240000023D0EB020263EBE0735E
:10042000009821464FEAE074B8EB000061EB04014C
:10043000E9E783F000435BE781F0004158E72DE9ED
:10044000FE4F81EA030404F0004421F000410094CF
:100450004FF0000B23F0004350EA01045ED052EA53
:1004600003045BD0C3F30A54C1F30A552C44A4F22D
:10047000F3340194A0FB0254C1F3130141F4801141
:10048000C3F3130343F4801301FB024400FB034E48
:10049000840A970A44EA815447EA8357A4FB076811
:1004A00002958D0A05FB07854FEA932C04FB0C543B
:1004B0002705029D4FEA065847EA1637B5EB0805AF
:1004C0006EEB070C870E920E47EA811742EA831201
:1004D000A7FB0201B6EB0B0164EB00042B0D43EA12
:1004E0000C335E1844EB1C50DA465146E7FB020120
:1004F000C5F313044FEA0B3343EA14534FEA0432B3
:10050000019C43EA0603A4F10C040294009CCDE98B
:1005100000B400F0F7F803B0BDE8F08F002001460A
:10052000F9E72DE9F04D81EA030404F0004B21F0D6
:10053000004514464FF0000A23F0004150EA05023E
:1005400020D054EA01021DD0C5F30A570246C5F374
:100550001303C1F31300C1F30A5640F4801543F4AA
:100560008013A7EB0608101BD64608F2FD3873EB84
:10057000050002D308F1010801E092185B41B8F1CF
:10058000000F03DA00200146BDE8F08D00204FF493
:100590008011064684460EE0171B73EB050705D352
:1005A000121B63EB050306434CEA010C49084FEAB2
:1005B000300092185B4150EA0107EDD152EA030086
:1005C00012D082EA040083EA0501084305D0101B1B
:1005D000AB4106D20122002306E000224FF0004387
:1005E00002E06FF0010253101AEB06004CEB0851C9
:1005F00010EB0A0041EB0B01BDE8F04D00F073B8C1
:10060000C1F30A52C1F3130140F2FF3341F48011E8
:100610009A4202DA00200146704740F233439A4280
:10062000A2F2334202DC524200F03BB800F02AB89A
:1006300030B5041E71F1000404DB4FF00044404269
:1006400064EB0101141E73F1000405DB1C464FF03E
:100650000043524263EB0403994208BF904230BD0D
:10066000064C074D06E0E06840F0010394E80700FF
:1006700098471034AC42F6D3FFF79CFDB838010818
:10068000D8380108202A04DB203A00FA02F10020C1
:1006900070479140C2F1200320FA03F319439040C0
:1006A0007047202A04DB203A21FA02F0002170472B
:1006B00021FA02F3D040C2F12002914008431946CA
:1006C0007047202A06DBCB17203A41FA02F043EAB2
:1006D000E07306E041FA02F3D040C2F120029140FB
:1006E00008431946704710B5141E73F1000408DA68
:1006F000401C41F1000192185B411A4301D120F0E6
:10070000010010BD2DE9F04D92469B4611B1B1FAA2
:1007100081F202E0B0FA80F220329046FFF7B2FF99
:1007200004460F4640EA0A0041EA0B0153465A4686
:10073000084313D0114653EA010019D0C8F1400212
:100740005046FFF7AEFF05460E4650465946424614
:10075000FFF798FF084305D0012004E02046394602
:10076000BDE8F08D0020054346EAE0762C43374390
:100770000A986305E40AA0EB08000022FD0A44EA97
:1007800047540A3002D500200146E9E70105101957
:100790006941DDE9084500196941BDE8F04DA2E76E
:1007A000FFE7FEE784B003908DF80B10039810B9B3
:1007B000FFE700F0DBBE40F20800C2F20000007864
:1007C0000138014600910B2800F2CF860099DFE83E
:1007D00011F00C00AF005401FD01B00262031404DB
:1007E00098041C05A005040668069DF80B00202847
:1007F00040F09C80FFE744F21D10C2F20000007838
:10080000002849D0FFE744F21C10C2F20000007833
:10081000072810DCFFE744F21C10C2F20000017848
:10082000012000FA01F240F22001C2F20001087832
:100830001043087011E044F21C10C2F2000000786E
:10084000A0F10801012000FA01F240F22001C2F2F9
:100850000001487810434870FFE70398017840781A
:1008600040EA012044F21C12C2F20002137840F266
:100870002001C2F20001453103EB430321F82300BC
:1008800003988378C07840EA0320127802EB420292
:1008900001EB8201488048E044F21C10C2F20000E3
:1008A0000078072810DCFFE744F21C10C2F20000B9
:1008B0000178012000FA01F242F22001C2F20001A7
:1008C00008781043087011E044F21C10C2F20000D6
:1008D0000078A0F10801012000FA01F242F22001A3
:1008E000C2F20001487810434870FFE7039801788E
:1008F000407840EA012044F21C12C2F20002137850
:1009000042F22001C2F20001453103EB430321F81A
:10091000230003988378C07840EA0320127802EB22
:10092000420201EB82014880FFE7FFE700F01EBEB4
:100930009DF80B00202840F09E80FFE744F21D1038
:10094000C2F20000007800284AD0FFE744F21C10F1
:10095000C2F200000078032811DCFFE744F21C100B
:10096000C2F200000078011D012000FA01F240F2FD
:100970002001C2F2000148781043487010E044F2B0
:100980001C10C2F200000078011F012000FA01F2E1
:1009900040F22001C2F20001887810438870FFE71E
:1009A00003980178407840EA012044F21C12C2F218
:1009B0000002137840F22001C2F20001453103EB3E
:1009C000430301EB8303988003988378C07840EA5F
:1009D0000320127802EB420201EB8201C88049E059
:1009E00044F21C10C2F200000078032811DCFFE77B
:1009F00044F21C10C2F200000078011D012000FA30
:100A000001F242F22001C2F200014878104348701E
:100A100010E044F21C10C2F200000078011F012017
:100A200000FA01F242F22001C2F20001887810437C
:100A30008870FFE703980178407840EA012044F28B
:100A40001C12C2F20002137842F22001C2F200012D
:100A5000453103EB430301EB8303988003988378CC
:100A6000C07840EA0320127802EB420201EB8201D7
:100A7000C880FFE7FFE700F079BD9DF80B00202854
:100A800040F0A280FFE744F21D10C2F2000000789F
:100A900000284AD0FFE744F21C10C2F200000078A0
:100AA000072810DCFFE744F21C10C2F200000178B6
:100AB000012000FA01F240F22001C2F20001C878E0
:100AC0001043C87011E044F21C10C2F2000000781C
:100AD000A0F10801012000FA01F240F22001C2F267
:100AE0000001087910430871FFE703980178407806
:100AF00040EA012044F21C12C2F20002137840F2D4
:100B00002001C2F20001453103EB430301EB8303F3
:100B1000188103988378C07840EA0320127802EBAA
:100B2000420201EB820148814DE044F21C10C2F206
:100B300000000078072810DCFFE744F21C10C2F226
:100B400000000178012000FA01F242F22001C2F215
:100B50000001C8781043C87011E044F21C10C2F2C2
:100B600000000078A0F10801012000FA01F242F231
:100B70002001C2F20001087910430871FFE742F238
:100B80002001C2F20001087840F0040001F8450B92
:100B900003980278407840EA022044F21C12C2F224
:100BA0000002137803EB430301EB830318810398DE
:100BB0008378C07840EA0320127802EB420201EB0E
:100BC00082014881FFE7FFE700F0D0BC9DF80B00F1
:100BD000202840F0AC80FFE744F21D10C2F2000074
:100BE0000078002851D0FFE744F21C10C2F2000048
:100BF0000078032811DCFFE744F21C10C2F2000069
:100C00000078011D012000FA01F240F22001C2F239
:100C1000000108791043087110E044F21C10C2F280
:100C200000000078011F012000FA01F240F22001CB
:100C3000C2F20001487910434871FFE700208DF8A7
:100C40000A00FFE79DF80A0017281DDCFFE703985C
:100C50009DF80A10405C44F21C11C2F200010978B0
:100C600001EBC10240F22001C2F2000101EBC2011E
:100C70009DF80A20114481F8E500FFE79DF80A007D
:100C800001308DF80A00DDE750E044F21C10C2F29A
:100C900000000078032811DCFFE744F21C10C2F2C8
:100CA00000000078011D012000FA01F242F220014B
:100CB000C2F2000108791043087110E044F21C10E0
:100CC000C2F200000078011F012000FA01F242F296
:100CD0002001C2F20001487910434871FFE700206B
:100CE0008DF80900FFE79DF8090017281DDCFFE7D4
:100CF00003989DF80910405C44F21C11C2F20001F7
:100D0000097801EBC10242F22001C2F2000101EBBD
:100D1000C2019DF80920114481F8E500FFE79DF824
:100D2000090001308DF80900DDE7FFE7FFE700F07B
:100D30001DBC9DF80B00202840F0AC80FFE744F27A
:100D40001D10C2F200000078002851D0FFE744F2E5
:100D50001C10C2F200000078072810DCFFE744F204
:100D60001C10C2F200000178012000FA01F240F2EA
:100D70002001C2F2000188791043887111E044F229
:100D80001C10C2F200000078A0F10801012000FA56
:100D900001F240F22001C2F20001C8791043C8718B
:100DA000FFE700208DF80800FFE79DF808001728EE
:100DB0001DDCFFE703989DF80810405C44F21C110D
:100DC000C2F20001097801EBC10240F22001C2F237
:100DD000000101EBC2019DF80820114481F8FD00DB
:100DE000FFE79DF8080001308DF80800DDE750E0CE
:100DF00044F21C10C2F200000078072810DCFFE764
:100E000044F21C10C2F200000178012000FA01F245
:100E100042F22001C2F2000188791043887111E08A
:100E200044F21C10C2F200000078A0F10801012079
:100E300000FA01F242F22001C2F20001C879104327
:100E4000C871FFE700208DF80700FFE79DF8070055
:100E500017281DDCFFE703989DF80710405C44F25B
:100E60001C11C2F20001097801EBC10242F220011B
:100E7000C2F2000101EBC2019DF80720114481F884
:100E8000FD00FFE79DF8070001308DF80700DDE762
:100E9000FFE7FFE76AE39DF80B00202840F0AC80F5
:100EA000FFE744F21D10C2F200000078002851D084
:100EB000FFE744F21C10C2F200000078032811DCA6
:100EC000FFE744F21C10C2F200000078011D01206F
:100ED00000FA01F240F22001C2F20001C879104389
:100EE000C87110E044F21C10C2F200000078011F2B
:100EF000012000FA01F240F22001C2F20001087A5A
:100F000010430872FFE700208DF80600FFE79DF808
:100F1000060017281DDCFFE703989DF80610405CCB
:100F200044F21C11C2F20001097801EBC10240F247
:100F30002001C2F2000101EBC2019DF8062011441C
:100F400081F81501FFE79DF8060001308DF80600D5
:100F5000DDE750E044F21C10C2F2000000780328E4
:100F600011DCFFE744F21C10C2F200000078011D02
:100F7000012000FA01F242F22001C2F20001C87918
:100F80001043C87110E044F21C10C2F20000007857
:100F9000011F012000FA01F242F22001C2F2000119
:100FA000087A10430872FFE700208DF80500FFE77C
:100FB0009DF8050017281DDCFFE703989DF8051034
:100FC000405C44F21C11C2F20001097801EBC1023D
:100FD00042F22001C2F2000101EBC2019DF805209E
:100FE000114481F81501FFE79DF8050001308DF8E7
:100FF0000500DDE7FFE7FFE7B8E29DF80B002028DA
:101000007ED1FFE744F21D10C2F200000078D8B391
:10101000FFE744F21C10C2F200000078072810DC41
:10102000FFE744F21C10C2F200000178012000FA30
:1010300001F240F22001C2F20001487A10434872E6
:1010400011E044F21C10C2F200000078A0F1080187
:10105000012000FA01F240F22001C2F20001887A78
:1010600010438872FFE70398007844F21C11C2F223
:101070000001097801EB410240F22001C2F20001B7
:10108000114481F821003AE044F21C10C2F2000041
:101090000078072810DCFFE744F21C10C2F20000C1
:1010A0000178012000FA01F242F22001C2F20001AF
:1010B000487A1043487211E044F21C10C2F200005A
:1010C0000078A0F10801012000FA01F242F22001AB
:1010D000C2F20001887A10438872FFE70398007813
:1010E00044F21C11C2F20001097801EB410242F204
:1010F0002001C2F20001114481F82100FFE7FFE75F
:1011000034E29DF80B0020287ED1FFE744F21D1049
:10111000C2F200000078D8B3FFE744F21C10C2F21C
:1011200000000078032811DCFFE744F21C10C2F233
:1011300000000078011D012000FA01F240F22001B8
:10114000C2F20001887A1043887210E044F21C1049
:10115000C2F200000078011F012000FA01F240F203
:101160002001C2F20001C87A1043C872FFE7039859
:10117000007844F21C11C2F20001097801EB41022F
:1011800040F22001C2F20001114481F822003AE04D
:1011900044F21C10C2F200000078032811DCFFE7C3
:1011A00044F21C10C2F200000078011D012000FA78
:1011B00001F242F22001C2F20001887A10438872E3
:1011C00010E044F21C10C2F200000078011F012060
:1011D00000FA01F242F22001C2F20001C87A104383
:1011E000C872FFE70398007844F21C11C2F20001B4
:1011F000097801EB410242F22001C2F200011144E0
:1012000081F82200FFE7FFE7B0E19DF80B002028FE
:101210007ED1FFE744F21D10C2F200000078D8B37F
:10122000FFE744F21C10C2F200000078072810DC2F
:10123000FFE744F21C10C2F200000178012000FA1E
:1012400001F240F22001C2F20001087B1043087352
:1012500011E044F21C10C2F200000078A0F1080175
:10126000012000FA01F240F22001C2F20001487BA5
:1012700010434873FFE70398007844F21C11C2F250
:101280000001097801EB410240F22001C2F20001A5
:10129000114481F823003AE044F21C10C2F200002D
:1012A0000078072810DCFFE744F21C10C2F20000AF
:1012B0000178012000FA01F242F22001C2F200019D
:1012C000087B1043087311E044F21C10C2F20000C6
:1012D0000078A0F10801012000FA01F242F2200199
:1012E000C2F20001487B10434873FFE7039800787F
:1012F00044F21C11C2F20001097801EB410242F2F2
:101300002001C2F20001114481F82300FFE7FFE74A
:101310002CE19DF80B0020285ED1FFE744F21D1060
:10132000C2F20000007858B3FFE744F21C10C2F28A
:1013300000000078032811DCFFE744F21C10C2F221
:1013400000000078011D012000FA01F240F22001A6
:10135000C2F20001487B1043487310E044F21C10B5
:10136000C2F200000078011F012000FA01F240F2F1
:101370002001C2F20001887B10438873FFE72AE056
:1013800044F21C10C2F200000078032811DCFFE7D1
:1013900044F21C10C2F200000078011D012000FA86
:1013A00001F242F22001C2F20001487B104348736F
:1013B00010E044F21C10C2F200000078011F01206E
:1013C00000FA01F242F22001C2F20001887B1043D0
:1013D0008873FFE7FFE7FFE7C8E09DF80B002028D0
:1013E0005ED1FFE744F21D10C2F20000007858B34E
:1013F000FFE744F21C10C2F200000078072810DC5E
:10140000FFE744F21C10C2F200000178012000FA4C
:1014100001F240F22001C2F20001C87B1043C87300
:1014200011E044F21C10C2F200000078A0F10801A3
:10143000012000FA01F240F22001C2F20001087C12
:1014400010430874FFE72AE044F21C10C2F20000C7
:101450000078072810DCFFE744F21C10C2F20000FD
:101460000178012000FA01F242F22001C2F20001EB
:10147000C87B1043C87311E044F21C10C2F2000094
:101480000078A0F10801012000FA01F242F22001E7
:10149000C2F20001087C10430874FFE7FFE7FFE792
:1014A00064E09DF80B0020285ED1FFE744F21D1098
:1014B000C2F20000007858B3FFE744F21C10C2F2F9
:1014C00000000078032811DCFFE744F21C10C2F290
:1014D00000000078011D012000FA01F240F2200115
:1014E000C2F20001087C1043087410E044F21C10A2
:1014F000C2F200000078011F012000FA01F240F260
:101500002001C2F20001487C10434874FFE72AE042
:1015100044F21C10C2F200000078032811DCFFE73F
:1015200044F21C10C2F200000078011D012000FAF4
:1015300001F242F22001C2F20001087C104308745B
:1015400010E044F21C10C2F200000078011F0120DC
:1015500000FA01F242F22001C2F20001487C10437D
:101560004874FFE7FFE7FFE700E0FFE704B07047DC
:1015700083B002908DF80710029808B9FFE73AE3AC
:1015800040F20900C2F20000007891380146009153
:10159000172800F22F830099DFE811F018003E00B1
:1015A00064008C00AC00CC00EC000C012C014C0160
:1015B0006C018C01AC01CC01EC010C022C024C0240
:1015C0006C028C02AC02CC02EC020C039DF807000A
:1015D000202820D1FFE744F21D10C2F2000000785D
:1015E00060B1FFE740F22001C2F20001887C40F0C8
:1015F000010088740298007888770BE042F220019D
:10160000C2F20001887C40F00100887402980078E2
:101610008877FFE7FFE7EEE29DF80700202820D15A
:10162000FFE744F21D10C2F20000007860B1FFE74E
:1016300040F22001C2F20001887C40F00200887470
:1016400002980078C8770BE042F22001C2F2000154
:10165000887C40F00200887402980078C877FFE721
:10166000FFE7C8E29DF80700202822D1FFE744F2F7
:101670001D10C2F20000007868B1FFE740F22001BF
:10168000C2F20001887C40F004008874029800785F
:1016900081F820000CE042F22001C2F20001887CB7
:1016A00040F0040088740298007881F82000FFE779
:1016B000FFE7A0E29DF8070020281AD1FFE744F2D7
:1016C0001D10C2F20000007848B1FFE740F220018F
:1016D000C2F20001887C40F00800887408E042F201
:1016E0002001C2F20001887C40F008008874FFE706
:1016F000FFE780E29DF8070020281AD1FFE744F2B7
:101700001D10C2F20000007848B1FFE740F220014E
:10171000C2F20001887C40F01000887408E042F2B8
:101720002001C2F20001887C40F010008874FFE7BD
:10173000FFE760E29DF8070020281AD1FFE744F296
:101740001D10C2F20000007848B1FFE740F220010E
:10175000C2F20001887C40F02000887408E042F268
:101760002001C2F20001887C40F020008874FFE76D
:10177000FFE740E29DF8070020281AD1FFE744F276
:101780001D10C2F20000007848B1FFE740F22001CE
:10179000C2F20001887C40F04000887408E042F208
:1017A0002001C2F20001887C40F040008874FFE70D
:1017B000FFE720E29DF8070020281AD1FFE744F256
:1017C0001D10C2F20000007848B1FFE740F220018E
:1017D000C2F20001887C40F08000887408E042F288
:1017E0002001C2F20001887C40F080008874FFE78D
:1017F000FFE700E29DF8070020281AD1FFE744F236
:101800001D10C2F20000007848B1FFE740F220014D
:10181000C2F20001C87C40F00100C87408E042F246
:101820002001C2F20001C87C40F00100C874FFE74B
:10183000FFE7E0E19DF8070020281AD1FFE744F216
:101840001D10C2F20000007848B1FFE740F220010D
:10185000C2F20001C87C40F00200C87408E042F205
:101860002001C2F20001C87C40F00200C874FFE70A
:10187000FFE7C0E19DF8070020281AD1FFE744F2F6
:101880001D10C2F20000007848B1FFE740F22001CD
:10189000C2F20001C87C40F00400C87408E042F2C3
:1018A0002001C2F20001C87C40F00400C874FFE7C8
:1018B000FFE7A0E19DF8070020281AD1FFE744F2D6
:1018C0001D10C2F20000007848B1FFE740F220018D
:1018D000C2F20001C87C40F00800C87408E042F27F
:1018E0002001C2F20001C87C40F00800C874FFE784
:1018F000FFE780E19DF8070020281AD1FFE744F2B6
:101900001D10C2F20000007848B1FFE740F220014C
:10191000C2F20001C87C40F01000C87408E042F236
:101920002001C2F20001C87C40F01000C874FFE73B
:10193000FFE760E19DF8070020281AD1FFE744F295
:101940001D10C2F20000007848B1FFE740F220010C
:10195000C2F20001C87C40F02000C87408E042F2E6
:101960002001C2F20001C87C40F02000C874FFE7EB
:10197000FFE740E19DF8070020281AD1FFE744F275
:101980001D10C2F20000007848B1FFE740F22001CC
:10199000C2F20001C87C40F04000C87408E042F286
:1019A0002001C2F20001C87C40F04000C874FFE78B
:1019B000FFE720E19DF8070020281AD1FFE744F255
:1019C0001D10C2F20000007848B1FFE740F220018C
:1019D000C2F20001C87C40F08000C87408E042F206
:1019E0002001C2F20001C87C40F08000C874FFE70B
:1019F000FFE700E19DF8070020281AD1FFE744F235
:101A00001D10C2F20000007848B1FFE740F220014B
:101A1000C2F20001087D40F00100087508E042F2C2
:101A20002001C2F20001087D40F001000875FFE7C7
:101A3000FFE7E0E09DF8070020281AD1FFE744F215
:101A40001D10C2F20000007848B1FFE740F220010B
:101A5000C2F20001087D40F00200087508E042F281
:101A60002001C2F20001087D40F002000875FFE786
:101A7000FFE7C0E09DF8070020281AD1FFE744F2F5
:101A80001D10C2F20000007848B1FFE740F22001CB
:101A9000C2F20001087D40F00400087508E042F23F
:101AA0002001C2F20001087D40F004000875FFE744
:101AB000FFE7A0E09DF8070020281AD1FFE744F2D5
:101AC0001D10C2F20000007848B1FFE740F220018B
:101AD000C2F20001087D40F00800087508E042F2FB
:101AE0002001C2F20001087D40F008000875FFE700
:101AF000FFE780E09DF8070020281AD1FFE744F2B5
:101B00001D10C2F20000007848B1FFE740F220014A
:101B1000C2F20001087D40F01000087508E042F2B2
:101B20002001C2F20001087D40F010000875FFE7B7
:101B3000FFE760E09DF8070020281AD1FFE744F294
:101B40001D10C2F20000007848B1FFE740F220010A
:101B5000C2F20001087D40F02000087508E042F262
:101B60002001C2F20001087D40F020000875FFE767
:101B700041E0FFE79DF8070020281AD1FFE744F273
:101B80001D10C2F20000007848B1FFE740F22001CA
:101B9000C2F20001087D40F04000087508E042F202
:101BA0002001C2F20001087D40F040000875FFE707
:101BB000FFE720E09DF8070020281AD1FFE744F254
:101BC0001D10C2F20000007848B1FFE740F220018A
:101BD000C2F20001087D40F08000087508E042F282
:101BE0002001C2F20001087D40F080000875FFE787
:101BF000FFE700E0FFE703B07047000083B002900A
:101C00008DF80710029808B9FFE7E2E040F20A00F9
:101C1000C2F200000078A93801460091072800F2BE
:101C2000D7800099DFE801F0041E38526C86A0BA14
:101C300044F21D10C2F20000007848B1FFE740F204
:101C40002001C2F20001487D40F00100487508E023
:101C500042F22001C2F20001487D40F001004875C7
:101C6000FFE7B6E044F21D10C2F20000007848B170
:101C7000FFE740F22001C2F20001487D40F002007F
:101C8000487508E042F22001C2F20001487D40F0B0
:101C900002004875FFE79CE044F21D10C2F200000C
:101CA000007848B1FFE740F22001C2F20001487D10
:101CB00040F00400487508E042F22001C2F2000141
:101CC000487D40F004004875FFE782E044F21D10B3
:101CD000C2F20000007848B1FFE740F22001C2F2F2
:101CE0000001487D40F00800487508E042F22001FC
:101CF000C2F20001487D40F008004875FFE768E047
:101D000044F21D10C2F20000007848B1FFE740F233
:101D10002001C2F20001487D40F01000487508E043
:101D200042F22001C2F20001487D40F010004875E7
:101D3000FFE74EE044F21D10C2F20000007848B107
:101D4000FFE740F22001C2F20001487D40F0200090
:101D5000487508E042F22001C2F20001487D40F0DF
:101D600020004875FFE734E044F21D10C2F2000085
:101D7000007848B1FFE740F22001C2F20001487D3F
:101D800040F04000487508E042F22001C2F2000134
:101D9000487D40F040004875FFE71AE044F21D100E
:101DA000C2F20000007848B1FFE740F22001C2F221
:101DB0000001487D40F08000487508E042F22001B3
:101DC000C2F20001487D40F080004875FFE700E066
:101DD000FFE703B07047000080B584B003908DF832
:101DE0000B10039808B9FFE736E09DF80B000228B6
:101DF00032DBFFE703989DF80B100139425C01923A
:101E0000C9B200F0E5FB01460198884224D1FFE702
:101E100044F21C10C2F2000000780C2806D0FFE744
:101E200003989DF80B10FEF7BDFC14E044F21C1063
:101E3000C2F2000000780C2806D1FFE703989DF855
:101E40000B10FFF795FB05E003989DF80B10FFF7CB
:101E5000D5FEFFE7FFE7FFE704B080BD80B586B0A1
:101E600005900491ADF80E20059808B9FFE7AEE0A3
:101E70000598029000208DF80700029890F84D0018
:101E8000A8B1FFE7029890F84D00012804D1FFE7C0
:101E900001208DF80700FFE7029890F84D00022816
:101EA00004D1FFE702208DF80700FFE7FFE70020DD
:101EB0008DF80600FFE79DF806000C285CDCFFE7C4
:101EC0009DF807109DF8060000EB800248F6001010
:101ED000C2F20000009000EB8202517002999DF85E
:101EE00006201144497802EB820200EB82029170D5
:101EF00002999DF8062001EB8201497B02EB8202E8
:101F000000EB8202117102999DF8062001EB82011B
:101F1000897B02EB820200EB8202517102999DF8EB
:101F2000062001EB8201C97B02EB820200EB8202F8
:101F3000917102999DF8062001EB8201097C02EB68
:101F4000820200EB8202D1719DF8061001EB810143
:101F500000EB81000F2100F03BFB00999DF806206B
:101F600002EB820201EB8201C873FFE79DF80600D5
:101F700001308DF806009EE744F21D10C2F2000009
:101F8000007890B1FFE744F21D11C2F20001002079
:101F90000870049ABDF80E3040F22000C2F2000032
:101FA0004FF4B3610FF0CCFF11E044F21D11C2F207
:101FB000000101200870049ABDF80E3042F22000A2
:101FC000C2F200004FF4B3610FF0BAFFFFE706B0B2
:101FD00080BD000010B588B094468E4604460C982B
:101FE0000B990A9A0794CDF818E0CDF814C0049321
:101FF0008DF80F208DF80E108DF80D0007980290C7
:1020000044F20041C4F2000188423DD0FFE702984B
:1020100044F60001C4F2000188423AD0FFE702987A
:1020200044F60041C4F20001884237D0FFE702982D
:1020300045F20001C4F20001884234D0FFE7029863
:1020400047F60001C4F20001884236D0FFE702984B
:1020500047F60041C4F20001884233D0FFE70298FE
:1020600041F20001C4F20101884208D0FFE7029862
:1020700041F20041C4F20101884219D027E041F247
:10208000041009F0E7FD24E041F2110009F0E2FD3F
:102090001FE041F2120009F0DDFD1AE041F21300E9
:1020A00009F0D8FD15E041F2140009F0D3FD10E06D
:1020B00041F2051009F0CEFD0BE041F21E0009F0DF
:1020C000C9FD06E041F21F0009F0C4FD01E0FFE791
:1020D000FEE7079810F05AFA0798059910F036FABB
:1020E0000798049910F07EFB0798069910F082F982
:1020F00007980021019110F0D1FB0199079810F089
:10210000A7FB0199079810F07DFB0199079810F043
:1021100005FB0199079810F0EFFA0798042110F0D9
:1021200081FB0798082110F0A3FB9DF80F00C00762
:1021300068B1FFE7079840F2053110F001FB0798FE
:1021400040F20531C0F2050110F00CFBFFE79DF8ED
:102150000F00800700280DD5FFE7079840F20731F0
:1021600010F0EEFA079840F20731C0F2070110F0C4
:10217000F9FAFFE79DF80F00400700280DD5FFE7AB
:10218000079840F2063110F0DBFA079840F206316A
:10219000C0F2060110F0E6FAFFE79DF80F000028F4
:1021A0006FD0FFE700208DF80C000798009044F2F4
:1021B0000041C4F2000188423CD0FFE7009844F699
:1021C0000001C4F20001884238D0FFE7009844F6CD
:1021D0000041C4F20001884234D0FFE7009845F284
:1021E0000001C4F20001884230D0FFE7009847F6B2
:1021F0000001C4F20001884230D0FFE7009847F6A2
:102200000041C4F2000188422CD0FFE7009841F25F
:102210000001C4F20101884208D0FFE7009841F2B2
:102220000041C4F20101884214D01FE025208DF83E
:102230000C001DE026208DF80C0019E027208DF8F9
:102240000C0015E034208DF80C0011E035208DF8DD
:102250000C000DE047208DF80C0009E052208DF8AD
:102260000C0005E053208DF80C0001E0FFE7FEE7CD
:102270009DF90C009DF80E109DF80D2008F07CFCD7
:10228000FFE7079810F02EFA08B010BDB0B594B073
:1022900094468E4604461B981A99199A189D1394D1
:1022A000CDF848E0CDF844C08DF843308DF8422099
:1022B0008DF841108DF84000139810F0F7F90020C8
:1022C0008DF83F000E908DF837008DF8360013988A
:1022D000039044F20041C4F20001884244D0FFE779
:1022E000039844F60001C4F20001884248D0FFE799
:1022F000039844F60041C4F2000188424CD0FFE745
:10230000039845F20001C4F2000188424FD0FFE774
:10231000039847F60001C4F2000188425FD0FFE74E
:10232000039847F60041C4F20001884263D0FFE7FA
:10233000039841F20001C4F20101884208D0FFE78E
:10234000039841F20041C4F2010188423BD05EE0B3
:1023500046F20040C4F202000E9007208DF83F00C4
:1023600004208DF8370054E046F20000C4F2020069
:102370000E9006208DF83F0004208DF8370048E0CD
:1023800046F20000C4F202000E9003208DF83F00D8
:1023900004208DF837003CE046F20000C4F2020051
:1023A0000E9004208DF83F008DF8370031E046F2A2
:1023B0000000C4F202000E9007208DF83F000420B8
:1023C0008DF8370025E046F20040C4F202000E907E
:1023D00006208DF83F0005208DF8370019E046F201
:1023E0000000C4F202000E9001208DF83F0005208D
:1023F0008DF837000DE046F20000C4F202000E90A6
:1024000000208DF83F0005208DF8370001E0FFE740
:10241000FEE70E989DF83F1002F0ACFD0E989DF877
:102420003F1002F0EFFD40200A9012980690002025
:10243000079011990B911399043104910121059191
:10244000089018980C909DF84300C00718B1FFE75A
:102450000020099002E001200990FFE70E989DF806
:102460003F1004AA02F030FF0E989DF83F109DF82F
:10247000372002F0A3FD9DF84000002800F08C807A
:10248000FFE79DF84000000700280ED5FFE70E98F3
:102490009DF83F101022029202F09CFE029A0E98C4
:1024A0009DF83F1002F0BAFEFFE79DF84000C0071C
:1024B00070B1FFE70E989DF83F100822019202F0DC
:1024C00089FE019A0E989DF83F1002F0A7FEFFE7E3
:1024D0001398009044F20041C4F2000188423CD0BD
:1024E000FFE7009844F60001C4F20001884238D0AA
:1024F000FFE7009844F60041C4F20001884234D05E
:10250000FFE7009845F20001C4F20001884230D094
:10251000FFE7009847F60001C4F20001884230D07E
:10252000FFE7009847F60041C4F2000188422CD032
:10253000FFE7009841F20001C4F20101884208D08F
:10254000FFE7009841F20041C4F20101884214D033
:102550001FE046208DF836001DE011208DF8360072
:1025600019E00E208DF8360015E00F208DF83600AA
:1025700011E02F208DF836000DE045208DF8360053
:1025800009E00C208DF8360005E00B208DF83600B0
:1025900001E0FFE7FEE7FFE70E989DF83F1002F02D
:1025A000FBFC1398802110F08BF89DF8400048B197
:1025B000FFE79DF936009DF842109DF8412008F094
:1025C000DBFAFFE7139810F08DF814B0B0BD0000EF
:1025D00082B001908DF80310FF208DF80200FFE714
:1025E0009DF80300411E8DF8031078B1FFE79DF8B8
:1025F000020001994A1C01920978414043F2C0103F
:10260000C0F60100405C8DF80200E9E79DF8020089
:1026100002B0704780B582B046F20040C4F20200BA
:102620000621202202F092FD50B3FFE746F200405F
:10263000C4F202000621202202F054FD0020019085
:10264000FFE70198412805DCFFE7FFE7019801302B
:102650000190F6E740F60000C4F202004FF48071EA
:1026600005F090FB41F65701C2F20101002008700D
:1026700046F20040C4F20200062102F07BFCFFE7B4
:1026800002B080BD80B582B046F20040C4F20200C4
:102690000721202202F05AFD48B3FFE746F200402E
:1026A000C4F202000721202202F01CFD002001904C
:1026B000FFE70198412805DCFFE7FFE701980130BB
:1026C0000190F6E70020C4F202004FF4006105F02B
:1026D00059FB41F28D71C2F201010020087046F2EF
:1026E0000040C4F20200072102F044FCFFE702B000
:1026F00080BD0000FFE7FEE780B596B040F20040E5
:10270000C4F202000A90022111914022099205F0C0
:10271000CFFA099B0A9811990022139205F042FB07
:10272000099B0A98119A139905F08AFB0A98119946
:1027300080220B9205F0BCFA0A980B9B1199139A10
:1027400005F030FB0A980B9B119A139905F078FB62
:10275000139A0020C4F20200109001210D914FF451
:1027600000630C9305F01EFB0C9B1098119A1399B3
:1027700005F066FB109807210F914FF400720E923E
:1027800005F096FA0D9A0E9B1098119905F00AFB28
:102790000E9B1098119A139905F052FB0F991098FF
:1027A0004FF48062129205F083FA10981199129BEF
:1027B000139A05F0F7FA1098119A129B139905F0E5
:1027C0003FFB13981590FFE71598412805DCFFE7BC
:1027D000FFE7159801301590F6E70020C4F20200DB
:1027E0004FF4006105F0CEFA40F60000C4F202009A
:1027F000059001210291002208924FF48073019309
:1028000005F0D0FA019B059808990222069205F07E
:1028100017FB0598082104914022039205F048FA1D
:10282000029A039B0598069905F0BCFA039B05984C
:10283000069A089905F004FB0499059880220792EE
:1028400005F036FA05980699079B089A05F0AAFA4A
:102850000598069A079B089905F0F2FA08981490D3
:10286000FFE71498412805DCFFE7FFE714980130E3
:102870001490F6E740F60000C4F202004FF48071B5
:1028800005F080FA16B080BDFFE7FEE7FFE7FEE740
:10289000FFE7FEE782B08DF8070000919DF9070081
:1028A000B0F1FF3F0CDCFFE7009800019DF8071036
:1028B00001F00F014EF61452CEF20002885409E0E6
:1028C000009800019DF907104EF20042CEF200027E
:1028D0008854FFE702B07047BFF34F8F4EF60C519C
:1028E000CEF20001086800F4E0600422C0F2FA525F
:1028F00010430860BFF34F8FFFE7FEE7BFF34F8F32
:102900004EF60C51CEF20001086800F4E06004229B
:10291000C0F2FA5210430860BFF34F8FFFE7FEE7A3
:10292000FFE7FEE780B58CB044F21C11C2F2000153
:10293000087801300870C0B20E2819DBFFE744F2B6
:102940001C11C2F200010020087040F20801C2F21E
:102950000001087801300870C0B20D2807DBFFE7DE
:1029600040F20801C2F2000101200870FFE7FFE712
:1029700044F21C10C2F2000000780B2800F3998486
:10298000FFE740F20800C2F20000017844F21C1296
:10299000C2F20002137803EB430301EB83011278C8
:1029A00002EB820348F60012C2F2000202F8231082
:1029B00000780138014608910B2800F278840899C4
:1029C000DFE811F00C006B00C90027018501E3016D
:1029D00041029F02FD025B03B903170444F21D107C
:1029E000C2F20000007858B3FFE744F21C10C2F2B4
:1029F00000000078072810DCFFE744F21C10C2F248
:102A000000000178012000FA01F240F22001C2F238
:102A1000000108789043087011E044F21C10C2F2E3
:102A200000000078A0F10801012000FA01F240F254
:102A30002001C2F20001487890434870FFE72AE085
:102A400044F21C10C2F200000078072810DCFFE7F7
:102A500044F21C10C2F200000178012000FA01F2D9
:102A600042F22001C2F2000108789043087011E0A0
:102A700044F21C10C2F200000078A0F1080101200D
:102A800000FA01F242F22001C2F2000148789043BC
:102A90004870FFE7FFE700F00BBC44F21D10C2F2E4
:102AA0000000007858B3FFE744F21C10C2F20000A7
:102AB0000078032811DCFFE744F21C10C2F200008A
:102AC0000078011D012000FA01F240F22001C2F25B
:102AD000000148789043487010E044F21C10C2F2A4
:102AE00000000078011F012000FA01F240F22001ED
:102AF000C2F20001887890438870FFE72AE044F230
:102B00001C10C2F200000078032811DCFFE744F239
:102B10001C10C2F200000078011D012000FA01F231
:102B200042F22001C2F2000148789043487010E060
:102B300044F21C10C2F200000078011F012000FACC
:102B400001F242F22001C2F20001887890438870BD
:102B5000FFE7FFE7ACE344F21D10C2F2000000788B
:102B600058B3FFE744F21C10C2F2000000780728B7
:102B700010DCFFE744F21C10C2F2000001780120D3
:102B800000FA01F240F22001C2F20001C87890433D
:102B9000C87011E044F21C10C2F200000078A0F1ED
:102BA0000801012000FA01F240F22001C2F2000106
:102BB000087990430871FFE72AE044F21C10C2F242
:102BC00000000078072810DCFFE744F21C10C2F276
:102BD00000000178012000FA01F242F22001C2F265
:102BE0000001C8789043C87011E044F21C10C2F292
:102BF00000000078A0F10801012000FA01F242F281
:102C00002001C2F20001087990430871FFE7FFE755
:102C10004EE344F21D10C2F20000007858B3FFE703
:102C200044F21C10C2F200000078032811DCFFE718
:102C300044F21C10C2F200000078011D012000FACD
:102C400001F240F22001C2F20001087990430871BC
:102C500010E044F21C10C2F200000078011F0120B5
:102C600000FA01F240F22001C2F2000148799043DB
:102C70004871FFE72AE044F21C10C2F2000000781D
:102C8000032811DCFFE744F21C10C2F200000078B8
:102C9000011D012000FA01F242F22001C2F20001FE
:102CA00008799043087110E044F21C10C2F2000051
:102CB0000078011F012000FA01F242F22001C2F265
:102CC0000001487990434871FFE7FFE7F0E244F2E2
:102CD0001D10C2F20000007858B3FFE744F21C1048
:102CE000C2F200000078072810DCFFE744F21C1055
:102CF000C2F200000178012000FA01F240F2200146
:102D0000C2F2000188799043887111E044F21C10EE
:102D1000C2F200000078A0F10801012000FA01F2DF
:102D200040F22001C2F20001C8799043C871FFE768
:102D30002AE044F21C10C2F200000078072810DCE0
:102D4000FFE744F21C10C2F200000178012000FAF3
:102D500001F242F22001C2F20001887990438871A9
:102D600011E044F21C10C2F200000078A0F108014A
:102D7000012000FA01F242F22001C2F20001C879FA
:102D80009043C871FFE7FFE792E244F21D10C2F2E0
:102D90000000007858B3FFE744F21C10C2F20000B4
:102DA0000078032811DCFFE744F21C10C2F2000097
:102DB0000078011D012000FA01F240F22001C2F268
:102DC0000001C8799043C87110E044F21C10C2F2AF
:102DD00000000078011F012000FA01F240F22001FA
:102DE000C2F20001087A90430872FFE72AE044F239
:102DF0001C10C2F200000078032811DCFFE744F247
:102E00001C10C2F200000078011D012000FA01F23E
:102E100042F22001C2F20001C8799043C87110E06B
:102E200044F21C10C2F200000078011F012000FAD9
:102E300001F242F22001C2F20001087A90430872C6
:102E4000FFE7FFE734E244F21D10C2F20000007811
:102E500058B3FFE744F21C10C2F2000000780728C4
:102E600010DCFFE744F21C10C2F2000001780120E0
:102E700000FA01F240F22001C2F20001487A9043C8
:102E8000487211E044F21C10C2F200000078A0F178
:102E90000801012000FA01F240F22001C2F2000113
:102EA000887A90438872FFE72AE044F21C10C2F24D
:102EB00000000078072810DCFFE744F21C10C2F283
:102EC00000000178012000FA01F242F22001C2F272
:102ED0000001487A9043487211E044F21C10C2F29B
:102EE00000000078A0F10801012000FA01F242F28E
:102EF0002001C2F20001887A90438872FFE7FFE761
:102F0000D6E144F21D10C2F20000007858B3FFE78A
:102F100044F21C10C2F200000078032811DCFFE725
:102F200044F21C10C2F200000078011D012000FADA
:102F300001F240F22001C2F20001887A90438872C7
:102F400010E044F21C10C2F200000078011F0120C2
:102F500000FA01F240F22001C2F20001C87A904367
:102F6000C872FFE72AE044F21C10C2F200000078A9
:102F7000032811DCFFE744F21C10C2F200000078C5
:102F8000011D012000FA01F242F22001C2F200010B
:102F9000887A9043887210E044F21C10C2F200005C
:102FA0000078011F012000FA01F242F22001C2F272
:102FB0000001C87A9043C872FFE7FFE778E144F266
:102FC0001D10C2F20000007858B3FFE744F21C1055
:102FD000C2F200000078072810DCFFE744F21C1062
:102FE000C2F200000178012000FA01F240F2200153
:102FF000C2F20001087B9043087311E044F21C10F8
:10300000C2F200000078A0F10801012000FA01F2EC
:1030100040F22001C2F20001487B90434873FFE771
:103020002AE044F21C10C2F200000078072810DCED
:10303000FFE744F21C10C2F200000178012000FA00
:1030400001F242F22001C2F20001087B90430873B2
:1030500011E044F21C10C2F200000078A0F1080157
:10306000012000FA01F242F22001C2F20001487B85
:1030700090434873FFE7FFE71AE144F21D10C2F2E4
:103080000000007858B3FFE744F21C10C2F20000C1
:103090000078032811DCFFE744F21C10C2F20000A4
:1030A0000078011D012000FA01F240F22001C2F275
:1030B0000001487B9043487310E044F21C10C2F2B8
:1030C00000000078011F012000FA01F240F2200107
:1030D000C2F20001887B90438873FFE72AE044F244
:1030E0001C10C2F200000078032811DCFFE744F254
:1030F0001C10C2F200000078011D012000FA01F24C
:1031000042F22001C2F20001487B9043487310E074
:1031100044F21C10C2F200000078011F012000FAE6
:1031200001F242F22001C2F20001887B90438873D1
:10313000FFE7FFE7BCE044F21D10C2F20000007898
:1031400058B3FFE744F21C10C2F2000000780728D1
:1031500010DCFFE744F21C10C2F2000001780120ED
:1031600000FA01F240F22001C2F20001C87B904354
:10317000C87311E044F21C10C2F200000078A0F104
:103180000801012000FA01F240F22001C2F2000120
:10319000087C90430874FFE72AE044F21C10C2F256
:1031A00000000078072810DCFFE744F21C10C2F290
:1031B00000000178012000FA01F242F22001C2F27F
:1031C0000001C87B9043C87311E044F21C10C2F2A6
:1031D00000000078A0F10801012000FA01F242F29B
:1031E0002001C2F20001087C90430874FFE7FFE76A
:1031F0005EE044F21D10C2F20000007858B3FFE711
:1032000044F21C10C2F200000078032811DCFFE732
:1032100044F21C10C2F200000078011D012000FAE7
:1032200001F240F22001C2F20001087C90430874D0
:1032300010E044F21C10C2F200000078011F0120CF
:1032400000FA01F240F22001C2F20001487C9043F2
:103250004874FFE72AE044F21C10C2F20000007834
:10326000032811DCFFE744F21C10C2F200000078D2
:10327000011D012000FA01F242F22001C2F2000118
:10328000087C9043087410E044F21C10C2F2000065
:103290000078011F012000FA01F242F22001C2F27F
:1032A0000001487C90434874FFE7FFE700E0FFE738
:1032B000C5E344F21C10C2F2000000780C2840F074
:1032C000B982FFE740F20901C2F20001087801303B
:1032D0000870C0B2A92807DBFFE740F20901C2F27B
:1032E000000191200870FFE740F20900C2F20000DF
:1032F000017844F21C12C2F20002127802EB82033F
:1033000048F60012C2F2000202F823100078913849
:1033100001460791172800F28B820799DFE811F028
:10332000180032004C00660080009A00B400CE0005
:10333000E80002011C01360150016A0184019E016E
:10334000B801D201EC01060220023A0254026E02D8
:1033500044F21D10C2F20000007848B1FFE740F2CD
:103360002001C2F20001887C00F0FE00887408E0B1
:1033700042F22001C2F20001887C00F0FE00887455
:10338000FFE756E244F21D10C2F20000007848B197
:10339000FFE740F22001C2F20001887C00F0FD004E
:1033A000887408E042F22001C2F20001887C00F03B
:1033B000FD008874FFE73CE244F21D10C2F20000F9
:1033C000007848B1FFE740F22001C2F20001887C9A
:1033D00000F0FB00887408E042F22001C2F2000114
:1033E000887C00F0FB008874FFE722E244F21D10A5
:1033F000C2F20000007848B1FFE740F22001C2F2BB
:103400000001887C00F0F700887408E042F2200197
:10341000C2F20001887C00F0F7008874FFE708E240
:1034200044F21D10C2F20000007848B1FFE740F2FC
:103430002001C2F20001887C00F0EF00887408E0EF
:1034400042F22001C2F20001887C00F0EF00887493
:10345000FFE7EEE144F21D10C2F20000007848B12F
:10346000FFE740F22001C2F20001887C00F0DF009B
:10347000887408E042F22001C2F20001887C00F06A
:10348000DF008874FFE7D4E144F21D10C2F20000AF
:10349000007848B1FFE740F22001C2F20001887CC9
:1034A00000F0BF00887408E042F22001C2F200017F
:1034B000887C00F0BF008874FFE7BAE144F21D1079
:1034C000C2F20000007848B1FFE740F22001C2F2EA
:1034D0000001887C00F07F00887408E042F220013F
:1034E000C2F20001887C00F07F008874FFE7A0E151
:1034F00044F21D10C2F20000007848B1FFE740F22C
:103500002001C2F20001C87C00F0FE00C87408E08F
:1035100042F22001C2F20001C87C00F0FE00C87433
:10352000FFE786E144F21D10C2F20000007848B1C6
:10353000FFE740F22001C2F20001C87C00F0FD006C
:10354000C87408E042F22001C2F20001C87C00F019
:10355000FD00C874FFE76CE144F21D10C2F20000E8
:10356000007848B1FFE740F22001C2F20001C87CB8
:1035700000F0FB00C87408E042F22001C2F2000132
:10358000C87C00F0FB00C874FFE752E144F21D1054
:10359000C2F20000007848B1FFE740F22001C2F219
:1035A0000001C87C00F0F700C87408E042F2200176
:1035B000C2F20001C87C00F0F700C874FFE738E1F0
:1035C00044F21D10C2F20000007848B1FFE740F25B
:1035D0002001C2F20001C87C00F0EF00C87408E0CE
:1035E00042F22001C2F20001C87C00F0EF00C87472
:1035F000FFE71EE144F21D10C2F20000007848B15E
:10360000FFE740F22001C2F20001C87C00F0DF00B9
:10361000C87408E042F22001C2F20001C87C00F048
:10362000DF00C874FFE704E144F21D10C2F200009D
:10363000007848B1FFE740F22001C2F20001C87CE7
:1036400000F0BF00C87408E042F22001C2F200019D
:10365000C87C00F0BF00C874FFE7EAE044F21D1028
:10366000C2F20000007848B1FFE740F22001C2F248
:103670000001C87C00F07F00C87408E042F220011D
:10368000C2F20001C87C00F07F00C874FFE7D0E000
:1036900044F21D10C2F20000007848B1FFE740F28A
:1036A0002001C2F20001087D00F0FE00087508E06C
:1036B00042F22001C2F20001087D00F0FE00087510
:1036C000FFE7B6E044F21D10C2F20000007848B1F6
:1036D000FFE740F22001C2F20001087D00F0FD008A
:1036E000087508E042F22001C2F20001087D00F0F6
:1036F000FD000875FFE79CE044F21D10C2F20000D7
:10370000007848B1FFE740F22001C2F20001087DD5
:1037100000F0FB00087508E042F22001C2F200014F
:10372000087D00F0FB000875FFE782E044F21D1001
:10373000C2F20000007848B1FFE740F22001C2F277
:103740000001087D00F0F700087508E042F2200152
:10375000C2F20001087D00F0F7000875FFE768E09D
:1037600044F21D10C2F20000007848B1FFE740F2B9
:103770002001C2F20001087D00F0EF00087508E0AA
:1037800042F22001C2F20001087D00F0EF0008754E
:10379000FFE74EE044F21D10C2F20000007848B18D
:1037A000FFE740F22001C2F20001087D00F0DF00D7
:1037B000087508E042F22001C2F20001087D00F025
:1037C000DF000875FFE734E044F21D10C2F200008C
:1037D000007848B1FFE740F22001C2F20001087D05
:1037E00000F0BF00087508E042F22001C2F20001BB
:1037F000087D00F0BF000875FFE71AE044F21D10D5
:10380000C2F20000007848B1FFE740F22001C2F2A6
:103810000001087D00F07F00087508E042F22001F9
:10382000C2F20001087D00F07F000875FFE700E0AC
:10383000FFE703E140F20A01C2F20001087801301B
:103840000870C0B2B12807DBFFE740F20A01C2F2FC
:103850000001A9200870FFE740F20A00C2F2000050
:10386000017844F21C12C2F20002127802EB8203C9
:1038700048F60012C2F2000202F823100078A938BC
:1038800001460691072800F2D7800699DFE801F08B
:10389000041E38526C86A0BA44F21D10C2F2000019
:1038A000007848B1FFE740F22001C2F20001487DF4
:1038B00000F0FE00487508E042F22001C2F200016B
:1038C000487D00F0FE004875FFE7B6E044F21D10A9
:1038D000C2F20000007848B1FFE740F22001C2F2D6
:1038E0000001487D00F0FD00487508E042F220012B
:1038F000C2F20001487D00F0FD004875FFE79CE042
:1039000044F21D10C2F20000007848B1FFE740F217
:103910002001C2F20001487D00F0FB00487508E07C
:1039200042F22001C2F20001487D00F0FB00487520
:10393000FFE782E044F21D10C2F20000007848B1B7
:10394000FFE740F22001C2F20001487D00F0F700DD
:10395000487508E042F22001C2F20001487D00F003
:10396000F7004875FFE768E044F21D10C2F200005E
:10397000007848B1FFE740F22001C2F20001487D23
:1039800000F0EF00487508E042F22001C2F20001A9
:10399000487D00F0EF004875FFE74EE044F21D104F
:1039A000C2F20000007848B1FFE740F22001C2F205
:1039B0000001487D00F0DF00487508E042F2200178
:1039C000C2F20001487D00F0DF004875FFE734E0F7
:1039D00044F21D10C2F20000007848B1FFE740F247
:1039E0002001C2F20001487D00F0BF00487508E0E8
:1039F00042F22001C2F20001487D00F0BF0048758C
:103A0000FFE71AE044F21D10C2F20000007848B14E
:103A1000FFE740F22001C2F20001487D00F07F0084
:103A2000487508E042F22001C2F20001487D00F032
:103A30007F004875FFE700E0FFE7FFE7FFE744F29C
:103A40001C10C2F200000490007800EB800148F6E0
:103A50000010C2F20000059000EB81001321FEF778
:103A6000B7FD049A0599127802EB820201EB8201FC
:103A7000C87441F20040C4F201000B900B9841F26F
:103A80000001C4F2010188423FD1FFE741F28D718C
:103A9000C2F20101012008700020C4F202004FF4BC
:103AA000006104F077F900200A90FFE70A980328E4
:103AB00005DCFFE7FFE70A9801300A90F6E746F2D7
:103AC0000040C4F20200029007210391202201F07D
:103AD00009FB0298039944F21C12C2F20002127808
:103AE00002EB820348F60012C2F2000202EB8303EB
:103AF000002201F0C7FB02980399142201F09EFCFA
:103B00000298039901F048FA3AE041F65701C2F2EF
:103B100001010120087040F60000C4F202004FF4D9
:103B2000807104F037F900200990FFE70998032815
:103B300005DCFFE7FFE7099801300990F6E744F25A
:103B40001C10C2F20000007800EB800148F6001063
:103B5000C2F2000000EB810346F20040C4F2020012
:103B6000009006210191002201F08CFB0098019940
:103B7000142201F063FC0098019901F00DFAFFE7AF
:103B80000CB080BD80B54FF4406008F063F840F69B
:103B9000014008F05FF840F6024008F05BF840F69C
:103BA000034008F057F840F6044008F053F84FF48B
:103BB000805008F04FF841F2010008F04BF841F254
:103BC000020008F047F841F2030008F043F841F220
:103BD000050008F03FF841F2041008F03BF841F20C
:103BE000051008F037F840F6154008F033F840F6B5
:103BF000164008F02FF880BDFFE7FEE784B00020F4
:103C00000390029043F60001C4F20201086840F4F8
:103C100080300860FFE703980130039043F600000E
:103C2000C4F20200006800F400300290FFE702993D
:103C30000020009039B9FFE70398B0F5006018BF85
:103C400001200090FFE70098C0070028E3D1FFE7BC
:103C500043F60000C4F202000068800300280CD480
:103C6000FFE7FFE743F60000C4F2020000688003AC
:103C7000002801D4FFE7F5E7FFE743F64001C4F26F
:103C80000201086840F08050086047F20001C4F269
:103C90000001086840F44040086043F60801C4F29F
:103CA000020108680860086840F40040086008687D
:103CB00040F4A050086043F60401C4F2020146F249
:103CC0001940C0F64010086043F60001C4F202013A
:103CD000086840F080700860FFE743F60000C4F217
:103CE000020000688001002801D4FFE7F5E747F2F1
:103CF0000001C4F20001086840F480300860FFE76A
:103D000047F20400C4F200000068C003002801D498
:103D1000FFE7F5E747F20001C4F20001086840F44C
:103D200000300860FFE747F20400C4F200000068BA
:103D30008003002801D4FFE7F5E743F60801C4F249
:103D4000020108680190019820F003000190019899
:103D500040F00200019001980860FFE743F6080078
:103D6000C4F2020000680007002801D4FFE7F5E76D
:103D700004B0704780B582B0009000980138B0F16F
:103D8000807F03D3FFE70120019019E000980138FC
:103D90004EF21401CEF2000108604FF0FF300F2107
:103DA000FEF778FD4EF21801CEF200010020086007
:103DB0004EF21002CEF20002072111600190FFE7DF
:103DC000019802B080BD000080B50DF0EFF880BD15
:103DD0008DB040F20670C0F60810049040F2012049
:103DE000C0F20340039000200290019043F60800C7
:103DF000C4F202000068C0F381000C900C9800909F
:103E000040B1FFE7009801280ED0FFE70098022894
:103E100014D04AE040F20401C2F2000142F2004034
:103E2000C0F2F40008604AE040F20401C2F200016E
:103E300047F64000C0F27D10086040E043F6040001
:103E4000C4F20200016801F03F010B910168C1F367
:103E500088110A91016801F44032022101EBD2314C
:103E60000891006800F4800009900998B0F5800F6F
:103E700006D1FFE747F64000C0F27D10079005E04D
:103E800042F20040C0F2F4000790FFE707980B9958
:103E9000B0FBF1F00A9948430899B0FBF1F040F209
:103EA0000401C2F20001086009E040F20401C2F21C
:103EB000000142F20040C0F2F4000860FFE743F660
:103EC0000800C4F202000068C0B20009069006991A
:103ED00001A8405C059040F20401C2F200010868AC
:103EE000059AD04008600DB07047000080B582B0E0
:103EF0004EF68851CEF20001086840F47000086068
:103F000043F60001C4F20201086840F001000860B5
:103F1000FFE743F60000C4F20200006880070028B3
:103F200001D4FFE7F5E743F60800C4F20200006899
:103F300000F00C00082840F08080FFE7FFE7002039
:103F40000190FFE701984F2805D8FFE7FFE70198A8
:103F500001300190F6E743F60801C4F20201086857
:103F60000090009820F0F0000090009840F0800051
:103F700000900098086000200190FFE701984F280A
:103F800005D8FFE7FFE7019801300190F6E743F617
:103F90000801C4F2020108680090009820F0F000C7
:103FA0000090009840F09000009000980860002079
:103FB0000190FFE701984F2805D8FFE7FFE7019838
:103FC00001300190F6E743F60801C4F202010868E7
:103FD0000090009820F0F0000090009840F0A000C1
:103FE00000900098086000200190FFE701984F289A
:103FF00005D8FFE7FFE7019801300190F6E743F6A7
:104000000801C4F2020108680090009820F0F00056
:104010000090009840F0B0000090009808600020E8
:104020000190FFE701984F2805D8FFE7FFE70198C7
:1040300001300190F6E7FFE7FFE7C82000F0AEFA95
:1040400043F60801C4F20201086820F0030008608A
:1040500043F60002C4F2020210684FF6FF73CFF677
:10406000F66318401060106820F480201060002073
:104070000860FFE743F60800C4F202000068012070
:1040800008B9FFE7F6E743F60401C4F2020143F280
:104090001000C2F20040086043F60C01C4F20201B5
:1040A0000020086007F078FF02B080BD80B54FF0B7
:1040B000804001210DF03CFB30B1FFE74FF0804024
:1040C00001210DF02BFBFFE780BD000080B582B021
:1040D00040F20040C4F2000001210DF029FBE0B3E2
:1040E000FFE740F20040C4F2000001210DF016FB92
:1040F00041F28C70C2F20100017841F2C460C2F258
:104100000100FDF769FE00200190FFE7019841F2F0
:104110008C71C2F20101097888420AD2FFE7019A44
:10412000501C019041F2C461C2F201010020885488
:10413000ECE741F28C71C2F201010020009008709E
:1041400040F20040C4F200000DF04AFA00984FF629
:10415000AA01C2F200010870FFE702B080BD0000B2
:1041600080B582B040F60040C4F2000001210DF09D
:10417000DFFAD0B3FFE740F60040C4F200000121AF
:104180000DF0CCFA41F65600C2F20100017841F27E
:104190008E70C2F20100FDF71FFE00200190FFE7C4
:1041A000019841F65601C2F20101097888420AD20B
:1041B000FFE7019A501C019041F28E71C2F2010199
:1041C00000208854ECE741F65601C2F201010020BC
:1041D00008704FF6AB01C2F20001087040F60040D3
:1041E000C4F200000DF0FCF9FFE702B080BD000052
:1041F00080B541F20040C4F2000001210DF098FAB0
:1042000050B1FFE741F20040C4F2000001210DF07F
:1042100085FAFEF787FBFFE780BD000080B58AB016
:104220000422ADF80C200021ADF80E10ADF81010EE
:104230002F200590ADF812108DF818101D2006F0F3
:104240009BFC40F20040C4F2000002900121019169
:104250000DF05AFA019902980DF060FA02980DF0EB
:10426000C9F90AB080BD000080B58EB040F60000EC
:10427000C4F2000006900DF0BFF80698602101918D
:10428000ADF81E1000210491ADF820103122ADF8D8
:104290001C2014220992ADF822108DF8281007A9CD
:1042A0000DF0B2F90499069801220592ADF82C2080
:1042B000ADF82E10ADF83010ADF83210ADF8341066
:1042C000ADF836100BAA02920CF082FE0499069803
:1042D0000A2203920DF026F8019A049906980CF030
:1042E000DBFF049A069811460DF040F8029A0599F2
:1042F00006980CF06DFE039A059906980DF012F8D9
:104300000599069870220CF0C7FF049A0599069843
:104310000DF02CF8059906980DF028FA06980CF087
:104320004DFE06980DF066F90EB080BD80B58CB0DC
:1043300004200290ADF8140000200190ADF81600A2
:10434000ADF818002F210791ADF81A008DF8200064
:1043500040F60040C4F20000049005A90DF054F9A5
:104360000199029A322006F007FC0498012103917A
:104370000DF0CAF9039904980DF0D0F904980DF0E6
:1043800039F90CB080BD000080B58AB06320ADF86B
:104390000C0000200090ADF80E00ADF810007D215B
:1043A0000591ADF812008DF8180041F20040C4F2FA
:1043B0000000029003A90DF027F90099372002228E
:1043C00006F0DAFB0298012101910DF09DF90199A7
:1043D00002980DF0A3F902980DF00CF90AB080BD17
:1043E00080B584B041F20000C4F2010040F2053112
:1043F000C0F205010EF0C6F900285CD0FFE741F2DB
:104400000000C4F20100029040F20531C0F2050143
:104410000EF0A8F902980EF0B1F88DF80F0041F2F5
:104420008D70C2F201000078002843D1FFE741F20D
:104430008C70C2F201000078C7282ADCFFE740F246
:104440002441C4F20001002008604FF6AA00C2F225
:1044500000000078C00768B9FFE74FF6AA01C2F272
:1044600000010120087040F20040C4F200000DF08D
:10447000C1F8FFE79DF80F0041F28C73C2F201030F
:104480001A78511C197041F2C461C2F201018854BA
:104490000FE041F28C70C2F201000190017841F20C
:1044A000C460C2F20100FBF7C4FE0199002008704D
:1044B000FFE7FFE7FFE704B080BD000080B584B0F0
:1044C00041F20040C4F2010040F20531C0F20501A2
:1044D0000EF058F900285CD0FFE741F20040C4F22A
:1044E0000100029040F20531C0F205010EF03AF9E8
:1044F00002980EF043F88DF80F0041F65700C2F213
:1045000001000078002843D1FFE741F65600C2F2CF
:1045100001000078C7282ADCFFE740F62441C4F2F6
:104520000001002008604FF6AB00C2F200000078E6
:10453000C00768B9FFE74FF6AB01C2F200010120E6
:10454000087040F60040C4F200000DF053F8FFE799
:104550009DF80F0041F65603C2F201031A78511C70
:10456000197041F28E71C2F2010188540FE041F6D8
:104570005600C2F201000190017841F28E70C2F241
:104580000100FBF756FE019900200870FFE7FFE7E6
:10459000FFE704B080BD0000FFE7FEE782B00190B6
:1045A00000200090FFE70098019901EB8101B0EB3A
:1045B000410F05D2FFE7FFE7009801300090F2E7D6
:1045C00002B0704780B588B0079006910798418E79
:1045D000ADF80810D0F82E0001900698D0F80E0023
:1045E0000490069880690390FFE7FFE70798C06B87
:1045F0000590FFE70598002852D0FFE70598007A5C
:104600000146009170B1FFE70098013803280BD3F1
:10461000FFE700980438032826D3FFE7009807280F
:1046200001D1FFE7FFE736E0049805994968884221
:1046300012D0FFE70498B0B9FFE7039805994968DD
:10464000884210D1FFE7069800F1080101A8062270
:10465000FBF7FAFD38B1FFE7FFE7FFE70798059999
:1046600000F0C4F8FFE716E004980599496888420D
:1046700010D1FFE7069800F1080101A80622FBF718
:10468000E3FD38B1FFE7FFE7FFE70798059900F082
:1046900009F8FFE7FFE7FFE7059800680590A9E73D
:1046A00008B080BD80B582B0019000910098007A7A
:1046B00006280BD1FFE7FFE7FFE7009800F0BEF800
:1046C0000098026901980221904717E00098007B4A
:1046D000012807DBFFE7FFE7FFE70198009900F0FB
:1046E00085F80AE0FFE7FFE701980099043102F03E
:1046F000AFF9009964200873FFE7FFE702B080BDBF
:1047000080B584B0039002910192FFE7FFE7FFE7D5
:10471000FFE7FFE7FFE7029858B1FFE7029800685C
:1047200038B1FFE7019820B1FFE70198006808B9A8
:10473000FFE728E00398C06B0090FFE7009810B3F4
:10474000FFE70098406802990968884216D1FFE7A0
:10475000029800884FF6A96188420ED1FFE70198C0
:1047600000884FF6A961884207D0FFE7FFE7FFE71F
:104770000398009900F00AF8FFE7FFE7FFE70098C9
:1047800000680090DAE704B080BD000080B584B016
:10479000039002910298007A0146019190B1FFE7DF
:1047A0000198013803280FD3FFE701980438022845
:1047B00013D3FFE70198062804D0FFE701980728E4
:1047C00002D000E0FFE70EE0029800F037F8029810
:1047D000026903980221904705E0029906200872B9
:1047E000FFE7FFE7FFE704B080BD000080B582B0BF
:1047F000019000910099487B01304873009802694C
:104800000198022190470098407B0A280ADBFFE7C5
:1048100000990720087200994FF416704881FFE74D
:10482000FFE708E0009800F009F800980269019895
:1048300001219047FFE702B080BD000081B00090E9
:10484000FFE7FFE7009820B1FFE70099002008721A
:10485000FFE7002001B0704780B58AB0089007914B
:104860008DF81B200593FFE7089858B9FFE7FFE78D
:1048700043F28830C0F601000EF020F8FFE7002078
:104880000990C3E0FFE7FFE7079858B9FFE7FFE7A4
:1048900043F2A730C0F601000EF010F8FFE7002049
:1048A0000990B3E0FFE736204FF49A714FF420727D
:1048B00006F082FA0390039828B9FFE7FFE7FFE7C5
:1048C00000200990A2E0FFE70398408980084C2867
:1048D00001D8FFE7FFE7FFE79DF81B00032805D19C
:1048E000FFE707984079032814D1FFE707988079FC
:1048F00040B9FFE740F20C01C2F200010868013044
:104900000860FFE740F20C00C2F20000006807995F
:104910000860FFE7FFE7FFE703984068029002980E
:104920004FF49A71FBF785FC0299012008700299F7
:104930004870089890F834000299887007980068C9
:1049400005F0AAF8029948609DF81B00082819D0C4
:10495000FFE79DF81B00042814D0FFE79DF81B001B
:1049600007280FD0FFE79DF81B0003280FD1FFE7B2
:1049700007984079052805D0FFE707984079042873
:1049800005D1FFE7089840680299C860FFE700205A
:10499000ADF81200FFE7BDF81200052810D8FFE7B8
:1049A0000898BDF81220104490F82E000299114486
:1049B0000877FFE7BDF812000130ADF81200EAE712
:1049C000029948F26320C6F25330C1F8EC00029815
:1049D00000F1F00100203522012300F00BF9ADF8C1
:1049E0000600BDF806000299F0319DF81B2000F08A
:1049F0002BF9ADF80600059828B1FFE7BDF80600D1
:104A000005990880FFE703980990FFE709980AB025
:104A100080BD000080B58AB009900998406A08906E
:104A200000208DF81F00FFE7FFE708990020C8610C
:104A30000898062100F086FA0998089901220DF1DC
:104A40001203FFF709FF05900598002869D0FFE7DA
:104A5000059840680390FFE7FFE7BDF8120003994F
:104A6000F0313922022300F0C5F8ADF81200BDF88C
:104A700012000399F031099A928D00F037F9ADF8E0
:104A80001200BDF812000399F0313722032300F021
:104A9000B1F8ADF8120000208DF81B00FFE79DF87B
:104AA0001B00022816D8FFE7BDF812000399F03169
:104AB0009DF81B3040F21002C2F20002D25C00F0FE
:104AC000C3F8ADF81200FFE79DF81B0001308DF828
:104AD0001B00E4E7BDF812000399F031059A00F0DD
:104AE0002BF9FFE7FFE744F22010C2F20000006854
:104AF0000599099A43F2CC2CC0F6010C6B46C3F819
:104B000004C01A6043F2D022C0F6010243230DF024
:104B10004BFBFFE7FFE7059806F052FDFFE7FFE7D5
:104B200002E0FFE7FFE7FFE708988079FE2805DC51
:104B3000FFE70899887901308871FFE70898807944
:104B4000052806DCFFE7089881790120884002905B
:104B500002E03C200290FFE702984FF47A7148434C
:104B6000ADF81C00BDF81C0000F2F31044F6D35160
:104B7000C1F2620150FB01F1480900EBD1700899C4
:104B80000881FFE7FFE79DF91F000AB080BD000024
:104B900080B584B003900398406A0290029808B9E7
:104BA000FFE725E0029840790146019180B1FFE7D7
:104BB00001980338032804D3FFE701980A2808D195
:104BC000FFE7029900208871039800F0EFF80FE0EA
:104BD0000EE0FFE7029840790D2801DBFFE7FFE7D1
:104BE000FFE70299002088710398FFF713FFFFE7A2
:104BF00004B080BD83B0ADF80A0001918DF80320A8
:104C00008DF80230FFE7BDF80A009DF80210084455
:104C10000230452801D3FFE7FFE7FFE79DF80300D7
:104C20000199BDF80A20531CADF80A3088549DF84C
:104C300002000199BDF80A20531CADF80A308854CF
:104C4000BDF80A0003B0704783B0ADF80A000191C7
:104C50008DF80320FFE7BDF80A00442801D3FFE7E1
:104C6000FFE7FFE79DF803000199BDF80A20531CF8
:104C7000ADF80A308854BDF80A0003B07047000050
:104C800083B0ADF80A0001910092FFE7BDF80A0079
:104C90000430452801D3FFE7FFE7FFE79DF8030055
:104CA0000199BDF80A20531CADF80A308854BDF8AC
:104CB00002000199BDF80A20531CADF80A3088544F
:104CC0000098000A0199BDF80A20531CADF80A307B
:104CD000885400980199BDF80A20531CADF80A3099
:104CE0008854BDF80A0003B07047000083B0ADF8E7
:104CF0000A000191ADF80220FFE7BDF80A0002307A
:104D0000452801D3FFE7FFE7FFE79DF8030001997E
:104D1000BDF80A20531CADF80A308854BDF80200D3
:104D20000199BDF80A20531CADF80A308854BDF82B
:104D30000A0003B07047000080B584B0ADF80E00E3
:104D4000029101920299BDF80E20501CADF80E00A0
:104D5000FF208854FFE7BDF80E00442807D3FFE783
:104D6000BDF80E1000208907009041B1FFE7BDF8A3
:104D70000E100020442938BF01200090FFE7009862
:104D8000C00748B1FFE70299BDF80E20501CADF8EE
:104D90000E0000208854DEE70198BDF80E10F031B7
:104DA00089B206F0F7FC04B080BD000080B58CB07D
:104DB0000B900B98406A0A90FFE7FFE70A980321DF
:104DC000049100F0BFF8049A0B980A990DF11A03A8
:104DD000FFF742FD0790079800287AD0FFE7079871
:104DE00040680590BDF81A000599F0313922022378
:104DF000FFF700FFADF81A00BDF81A000599F03171
:104E00004FF41072FFF772FFADF81A00BDF81A00E8
:104E10000599F03132220423FFF7ECFEADF81A00B9
:104E2000BDF81A0003900598F03002900A98C06906
:104E300004F032FE029902460398FFF721FFADF815
:104E40001A00BDF81A000599F03137220323FFF745
:104E5000D1FEADF81A0000208DF82300FFE79DF881
:104E60002300022816D8FFE7BDF81A000599F03193
:104E70009DF8233040F21002C2F20002D25CFFF72C
:104E8000E3FEADF81A00FFE79DF8230001308DF82E
:104E90002300E4E7BDF81A000599F031079AFFF7FF
:104EA0004BFF44F22010C2F20000006807990B9AF1
:104EB0006B461A6043F2D022C0F6010243230DF084
:104EC000EFF88DF82700079806F07AFBFFE7FFE779
:104ED00005E0FFE7FFE7FF208DF82700FFE70A98CE
:104EE0008079FE2805DCFFE70A998879013088710E
:104EF000FFE70A988079092807DCFFE70A9880799C
:104F00004FF47A714843019003E042F2107001902F
:104F1000FFE70198ADF82400BDF8240000F2F3107B
:104F200044F6D351C1F2620150FB01F1480900EB94
:104F3000D1700A990881FFE7FFE79DF927000CB0BF
:104F400080BD000082B001908DF803109DF8030031
:104F50000199497988420AD0FFE79DF80300019939
:104F6000487101990020887101990881FFE702B01A
:104F70007047000082B001908DF8031001989DF8F1
:104F8000031001EB410100EBC101086920F00100B1
:104F9000086102B07047000082B001908DF80310E4
:104FA00001989DF8031001EB410100EBC101086974
:104FB00040F00100086102B07047000083B0029029
:104FC0008DF807108DF8062002989DF8071001EB68
:104FD000410100EBC10000690090009820F0606082
:104FE00000909DF80610009840EA416000900098FB
:104FF00002999DF8072002EB420201EBC201086111
:1050000003B0704782B001908DF8031001989DF8AD
:10501000031001EB410100EBC101086920F0010020
:10502000086101989DF8031001EB410100EBC101FB
:105030000020086101999DF8032002EB420201EB78
:10504000C201486101999DF8032002EB420201EB85
:10505000C201886101999DF8032002EB420201EB35
:10506000C201C86101999DF8032002EB420201EBE5
:10507000C201086201989DF8031001EB410100EBA9
:10508000C101212048629DF80300032811DCFFE7DD
:105090009DF8031001EB4100400001F0020100EB1C
:1050A00041013D2000FA01F20199886810438860AF
:1050B00015E09DF8030004388DF803009DF80310F7
:1050C00001EB4100400001F0020100EB41013D20F5
:1050D00000FA01F20199C8681043C860FFE702B006
:1050E0007047000083B002908DF8071000929DF881
:1050F0000700032811DCFFE700989DF8072002EB6A
:105100004201490002F0020201EB420100FA01F201
:10511000029988681043886015E09DF807000438FC
:105120008DF8070000989DF8072002EB4201490026
:1051300002F0020201EB420100FA01F20299C86892
:105140001043C860FFE703B07047000084B00290CE
:105150008DF8071000929DF80700032818DCFFE780
:105160000298006800999DF8073003EB4302520053
:1051700003F0020302EB43029140084204D0FFE730
:1051800001208DF80F0020E000208DF80F001CE0BA
:105190009DF8070004388DF80700029840680099D0
:1051A0009DF8073003EB4302520003F0020302EBC9
:1051B00043029140084204D0FFE701208DF80F0020
:1051C00003E000208DF80F00FFE79DF80F0004B00A
:1051D0007047000083B002908DF80710009200988D
:1051E00080280CD0FFE7009A02989DF8071001EB89
:1051F000410100EBC1010869104308610BE0009A0E
:1052000002989DF8071001EB410100EBC101486ACB
:1052100010434862FFE703B07047000083B002907C
:105220008DF8071000929DF80700032811DCFFE7B6
:1052300000989DF8072002EB4201490002F00202AB
:1052400001EB420100FA01F202998868104388607C
:1052500015E09DF8070004388DF8070000989DF8C8
:10526000072002EB4201490002F0020201EB420179
:1052700000FA01F20299C8681043C860FFE703B062
:105280007047000083B002908DF807108DF806205B
:1052900000939DF8060050B1FFE7009802999DF831
:1052A000072002EB420201EBC201086209E000980C
:1052B00002999DF8072002EB420201EBC201C8618E
:1052C000FFE703B07047000084B003908DF80B1027
:1052D000019203989DF80B1001EB410100EBC10115
:1052E000486A20F0040048620198006803999DF81C
:1052F0000B2002EB420201EBC20188610198806839
:1053000003999DF80B2002EB420201EBC201C86138
:105310000198C06903999DF80B2002EB420201EB52
:10532000C201486103989DF80B1001EB410100EBAD
:10533000C10000690090009848F23F71CFF6FC71FF
:1053400008400090019A10699169126A40EA800051
:1053500010430143009808430090009803999DF87A
:105360000B2002EB420201EBC20108610198406888
:1053700060B9FFE703989DF80B1001EB410100EBCA
:10538000C101086940F4007008611DE0019840689F
:1053900001280CD1FFE703989DF80B1001EB4101A8
:1053A00000EBC101086920F4007008610BE003986C
:1053B0009DF80B1001EB410100EBC101086940F4BD
:1053C00000400861FFE7FFE70198C06860B9FFE7A8
:1053D00003989DF80B1001EB410100EBC101086936
:1053E00040F4806008610BE003989DF80B1001EB1E
:1053F000410100EBC101086920F480600861FFE70A
:105400000198406960B9FFE703989DF80B1001EB24
:10541000410100EBC101086940F4807008610BE0B4
:1054200003989DF80B1001EB410100EBC1010869E5
:1054300020F480700861FFE704B0704783B00290E9
:105440008DF807100092009802999DF8072002EB52
:10545000420201EBC201486103B0704783B0029081
:105460000191FFE79DF80400800708B1FFE7FFE71F
:10547000FFE7019800900298C068006800990860F2
:1054800000980299C968086003B0704783B0019022
:105490000198C06800680090009880B1FFE700980C
:1054A00000680199C9680860FFE79DF8000080075F
:1054B00008B1FFE7FFE7FFE70098029005E0FFE78C
:1054C000FFE7FFE700200290FFE7029803B0704774
:1054D00081B00020009048F20002C4F2020211687C
:1054E0000091009948F20F13CFF630531940009104
:1054F000009941F4803100910099116048F2040153
:10550000C4F20201086048F20801C4F20201086016
:1055100048F20C01C4F20201086048F21802C4F219
:1055200002021168009100994FF6417319400091F1
:10553000009941F0800100910099116048F21C012E
:10554000C4F20201086048F23C01C4F2020108689A
:1055500040F40270086048F20C11C4F202010868BD
:105560006022C0F202021043086048F21011C4F237
:105570000201086840F40310086049F21801C4F2FF
:10558000020108680090009843F62372CFF6DE020D
:1055900010400090009840F008700090009808605B
:1055A00049F20001C4F202010868009000987D22CF
:1055B000CFF600021040009046F20000C0F2C12079
:1055C00000900098086001B07047000080B582B07C
:1055D00040F21940019006F065FB019806F04EFB81
:1055E00000F0C4FE02B080BD82B0019000200090A7
:1055F00001980090FFE7009828B1FFE7FFE70098C7
:1056000001380090F7E702B07047000084B00390C3
:105610008DF80B104FF0FF3001909DF80B00014604
:105620000091052843D80099DFE801F03B370F03CC
:105630000933039840686FF35F30019038E00398B6
:105640004068C0F30C40019032E003980068C0F35A
:105650000D4001900198052817D3FFE70198043801
:10566000019048F20000C4F20200006880010028A6
:105670000AD5FFE7039800788006002804D5FFE7E5
:10568000019804300190FFE702E000200190FFE75D
:105690000EE00398806801900AE00398806801900A
:1056A00006E003980068C0F3C300019000E0FFE744
:1056B000019804B07047000089B00890002007905E
:1056C00006900590049003900898B0F5E00F1FD164
:1056D000FFE741F27060C2F2010001904FF6AC00AA
:1056E000C2F2000000900520069040F2F4500590B0
:1056F0004FF480100490019849F21001C4F20201A5
:105700000860019844F23011C2F20001086021E003
:105710004FF61800C2F2000001904DF65420C2F27C
:10572000000000900520069040F2F45005904FF0E4
:105730000040049044F2F4500390019849F20C01A7
:10574000C4F202010860019844F22C11C2F2000177
:105750000860FFE744F22411C2F200010020086053
:1057600044F22811C2F2000108600790FFE7079891
:105770000699884229D2FFE70198079900EB0110AA
:105780000290049802990860039802994860009A70
:105790000798059900FB01200299886007980699EF
:1057A0000139884208D2FFE70198079900EB011000
:1057B00010300299C86003E001980299C860FFE7C1
:1057C000FFE7079801300790D1E709B07047000064
:1057D00080B501F0EFF800F06FFF80BD85B0039059
:1057E000029100200190009044F22C10C2F20000BF
:1057F0000068C0780006002804D5FFE700208DF877
:105800001300C6E00398002868D0FFE744F22C108C
:10581000C2F20000006840780006002859D4FFE773
:1058200044F22C10C2F2000000684078C007002843
:105830004FD0FFE744F22C10C2F20000006840781D
:105840008007002845D5FFE744F22C10C2F2000083
:1058500000680068C0F30D40009000980438009084
:1058600048F20000C4F202000068800100280ED552
:10587000FFE744F22C10C2F20000006800788006B6
:10588000002804D5FFE7009804300090FFE7009857
:105890000299884204D9FFE700208DF8130078E0D0
:1058A00000200190FFE701980099884210D2FFE79D
:1058B00044F22C10C2F20000006880680199405C3C
:1058C0000399019A8854FFE7019801300190EAE7B3
:1058D00003E000208DF813005BE0FFE744F22C109A
:1058E000C2F2000001684FF00040086049F2140065
:1058F000C4F202000068000600280DD5FFE749F257
:105900001401C4F202018020086049F20801C4F2C7
:10591000020100200860FFE744F22C10C2F20000F0
:10592000006840794006002808D5FFE744F22C11B2
:10593000C2F200010868C068086026E044F22C103A
:10594000C2F2000000684079000600280BD5FFE78E
:1059500049F20C00C4F20200006844F22C11C2F2B9
:105960000001086010E044F22C11C2F20001086846
:1059700049F20002C4F20202126802F07C0200EB5B
:10598000920010300860FFE7FFE701208DF8130058
:10599000FFE79DF8130005B07047000086B0049043
:1059A00003910020029044F23010C2F2000000681F
:1059B000C0780006002804D5FFE700208DF8170006
:1059C00093E0039840F2F551884204D3FFE70020AA
:1059D0008DF8170089E00498C0B1FFE7002002901D
:1059E000FFE70298039988420FD2FFE70498029AD2
:1059F000805C44F23011C2F2000109688968885461
:105A0000FFE7029801300290EBE7FFE7039944F2C9
:105A10003010C2F20000026851600268116841F063
:105A2000405111600168086840F00040086049F288
:105A30001400C4F20200016801F004010191006841
:105A400000F020000090019818B9FFE7009878B1A5
:105A5000FFE701980099084349F21401C4F20201DA
:105A6000086049F20401C4F2020100200860FFE767
:105A700044F23010C2F2000000688078C0060028AE
:105A800008D5FFE744F23011C2F200010868C0688F
:105A9000086026E044F23010C2F20000006880780E
:105AA000800600280BD5FFE749F21000C4F202007F
:105AB000006844F23011C2F20001086010E044F2C4
:105AC0003011C2F20001086849F20002C4F2020279
:105AD000126802F07C0200EB920010300860FFE7D1
