:020000040800F2
:10000000581C0120C10100086D2400086524000867
:1000100069240008A10700084D3D00080000000009
:100020000000000000000000000000007134000823
:10003000D122000800000000FD240008413600081D
:10004000DB010008DB010008DB010008DB01000820
:10005000DB010008DB010008DB010008DB01000810
:10006000DB010008DB010008DB010008DB01000800
:10007000DB010008DB010008DB010008DB010008F0
:10008000DB010008DB010008DB010008DB010008E0
:10009000DB010008DB010008DB010008DB010008D0
:1000A000DB010008DB010008DB010008DB010008C0
:1000B000DB01000825390008DB010008DB0100082E
:1000C000DB010008DB010008DB010008DB010008A0
:1000D000DB010008CD3B0008DB010008DB01000864
:1000E000DB010008DB010008DB010008DB01000880
:1000F000DB010008DB010008DB010008DB01000870
:10010000DB010008DB01000881390008DB01000881
:10011000DB010008DB010008DB010008DD39000815
:10012000DB010008DB010008DB010008DB0100083F
:10013000DB010008DB010008DB010008DB0100082F
:10014000DB010008DB010008DB010008DB0100081F
:10015000DB010008F1210008612200088D3C000845
:10016000DB010008DB010008DB010008DB010008FF
:10017000DB010008DB010008DB01000800000000D3
:10018000DB010008DB010008DB010008DB010008DF
:10019000DB010008DB010008DB01000800000000B3
:1001A000DB010008DB010008DB010008DFF80CD0F0
:1001B00000F056FA0048004705940008581C01203A
:1001C0000648804706480047FEE7FEE7FEE7FEE7F1
:1001D000FEE7FEE7FEE7FEE7FEE7FEE7653700081D
:1001E000AD01000810B5431A934209D2831888184C
:1001F00003E010F8011D03F8011D521EF9D210BDD5
:1002000040EA01039B0703D009E008C9121F08C098
:10021000042AFAD203E011F8013B00F8013B521E18
:10022000F9D210BDD2B201E000F8012B491EFBD279
:1002300070470022F6E710B513460A4604461946F1
:10024000FFF7F0FF204610BD30B5044600200346FE
:1002500000E05B1C934203D2E05CCD5C401BF8D015
:1002600030BD30B50B46014600202022012409E0B4
:1002700021FA02F59D4205D303FA02F5491B04FA5F
:1002800002F52844151EA2F10102F1DC30BD2DE972
:10029000F05F0546002092469B468846064681460A
:1002A00040241BE0284641464746224600F0F9F923
:1002B00053465A46C01A914110D311461846224659
:1002C00000F0E0F92D1A67EB01084F4622460120A5
:1002D000002100F0D7F917EB00094E41201EA4F1D0
:1002E0000104DFDC484631462A464346BDE8F09F1C
:1002F0002DE9FE4F804681EA0300C00F0C460090B6
:1003000021F0004123F00045B8EB0200A94105D2DD
:100310004046214690461C460B46024623F00040CC
:10032000104347D0270DC7F30A00C3F30A510290C8
:10033000401A019040286BDAC3F3130040F4801B8D
:100340000098924620B10023D2EB030A63EB0B0B1B
:1003500001985946C0F14002504600F093F9064614
:100360000D4650465946019A00F0ABF910EB0800D3
:100370006141002487EA115284EAE7731A4340D0AE
:10038000009A62B3019A012A4FEA075215DC001B5A
:1003900061EB02014FF0004202EA0752CDE9004250
:1003A000001C41F5801132462B4600F0ABF903B03A
:1003B000BDE8F08F40462146F9E7001B61EB0201E2
:1003C000001C41F5801300185B412018A2F50017AE
:1003D00047EB030140EAD570B6196D4111E06D0895
:1003E0004FEA360645EAC0754FEA0752001B61EB3B
:1003F0000201001C41F5801149084FEA3000001944
:10040000514132462B4603B0BDE8F04F00F06BB9C6
:100410000098012240000023D0EB020263EBE0735E
:10042000009821464FEAE074B8EB000061EB04014C
:10043000E9E783F000435BE781F0004158E72DE9ED
:10044000FE4F81EA030404F0004421F000410094CF
:100450004FF0000B23F0004350EA01045ED052EA53
:1004600003045BD0C3F30A54C1F30A552C44A4F22D
:10047000F3340194A0FB0254C1F3130141F4801141
:10048000C3F3130343F4801301FB024400FB034E48
:10049000840A970A44EA815447EA8357A4FB076811
:1004A00002958D0A05FB07854FEA932C04FB0C543B
:1004B0002705029D4FEA065847EA1637B5EB0805AF
:1004C0006EEB070C870E920E47EA811742EA831201
:1004D000A7FB0201B6EB0B0164EB00042B0D43EA12
:1004E0000C335E1844EB1C50DA465146E7FB020120
:1004F000C5F313044FEA0B3343EA14534FEA0432B3
:10050000019C43EA0603A4F10C040294009CCDE98B
:1005100000B400F0F7F803B0BDE8F08F002001460A
:10052000F9E72DE9F04D81EA030404F0004B21F0D6
:10053000004514464FF0000A23F0004150EA05023E
:1005400020D054EA01021DD0C5F30A570246C5F374
:100550001303C1F31300C1F30A5640F4801543F4AA
:100560008013A7EB0608101BD64608F2FD3873EB84
:10057000050002D308F1010801E092185B41B8F1CF
:10058000000F03DA00200146BDE8F08D00204FF493
:100590008011064684460EE0171B73EB050705D352
:1005A000121B63EB050306434CEA010C49084FEAB2
:1005B000300092185B4150EA0107EDD152EA030086
:1005C00012D082EA040083EA0501084305D0101B1B
:1005D000AB4106D20122002306E000224FF0004387
:1005E00002E06FF0010253101AEB06004CEB0851C9
:1005F00010EB0A0041EB0B01BDE8F04D00F073B8C1
:10060000C1F30A52C1F3130140F2FF3341F48011E8
:100610009A4202DA00200146704740F233439A4280
:10062000A2F2334202DC524200F03BB800F02AB89A
:1006300030B5041E71F1000404DB4FF00044404269
:1006400064EB0101141E73F1000405DB1C464FF03E
:100650000043524263EB0403994208BF904230BD0D
:10066000064C074D06E0E06840F0010394E80700FF
:1006700098471034AC42F6D3FFF79CFDB02F010829
:10068000D02F0108202A04DB203A00FA02F10020D2
:1006900070479140C2F1200320FA03F319439040C0
:1006A0007047202A04DB203A21FA02F0002170472B
:1006B00021FA02F3D040C2F12002914008431946CA
:1006C0007047202A06DBCB17203A41FA02F043EAB2
:1006D000E07306E041FA02F3D040C2F120029140FB
:1006E00008431946704710B5141E73F1000408DA68
:1006F000401C41F1000192185B411A4301D120F0E6
:10070000010010BD2DE9F04D92469B4611B1B1FAA2
:1007100081F202E0B0FA80F220329046FFF7B2FF99
:1007200004460F4640EA0A0041EA0B0153465A4686
:10073000084313D0114653EA010019D0C8F1400212
:100740005046FFF7AEFF05460E4650465946424614
:10075000FFF798FF084305D0012004E02046394602
:10076000BDE8F08D0020054346EAE0762C43374390
:100770000A986305E40AA0EB08000022FD0A44EA97
:1007800047540A3002D500200146E9E70105101957
:100790006941DDE9084500196941BDE8F04DA2E76E
:1007A000FFE7FEE72DE9F04190B00F908DF83B1088
:1007B0000F9810B9FFE700F064BC40F20800C2F2E5
:1007C00000000078013801460C910B2800F2588493
:1007D0000C99DFE811F00C006600C40029018D01BE
:1007E000F0015902A002E50228038A03F4039DF8F0
:1007F0003B00202854D1FFE744F21C12C2F2000251
:100800001178012000FA01FC44F21D13C2F200032A
:10081000187840F22001C2F2000101EB403ECDF811
:100820002CE0BEF81400DEF81000DEE90204DEE978
:10083000000440EA0C08DEE9020CDEF81040BEF8C5
:100840001450DEE9006768F30B06CEE90067AEF8E6
:100850001450CEF81040CEE9020C0F9890F800C06A
:10086000407840EA0C2093F800C001EB4C3C92F831
:1008700000E00EEB4E0E0CEB8E0CACF845000F9822
:1008800090F802C0C07840EA0C201B7801EB43319D
:10089000127802EB420201EB8201A1F84700FFE768
:1008A000EFE39DF83B00202858D1FFE744F21C12EB
:1008B000C2F2000211780120884044F21D13C2F2F6
:1008C000000393F800C040F22001C2F2000101EBE6
:1008D0004C3ECDF828E0BEF814C0DEF810C0DEE9CA
:1008E00002C4DEE900C440EA1C38DEE9020CDEF88E
:1008F0001040BEF81450DEE900676FF31F386FF345
:10090000173646EA0836CEE90067AEF81450CEF83E
:100910001040CEE9020C0F9890F800C0407840EAF1
:100920000C2093F800C001EB4C3C92F800E00EEB79
:100930004E0E0CEB8E0CACF849000F9890F802C0EC
:10094000C07840EA0C201B7801EB4331127802EBAF
:10095000420201EB8201A1F84B00FFE791E39DF811
:100960003B0020285FD1FFE744F21C12C2F20002D4
:100970001178012000FA01FC44F21D13C2F20003B9
:10098000187840F22001C2F2000101EB403ECDF8A0
:1009900024E0BEF81400DEF81000DEE90204DEE90F
:1009A0000004000E40EA042040EA0C08DEE9020CD4
:1009B000DEF81040BEF81450DEE900676FF31F3810
:1009C00026F07F4627F00F0747EA182746EA086611
:1009D000CEE90067AEF81450CEF81040CEE9020C14
:1009E0000F9890F800C0407840EA0C2093F800C0BF
:1009F00001EB4C3C92F800E00EEB4E0E0CEB8E0C33
:100A0000ACF84D000F9890F802C0C07840EA0C2076
:100A10001B7801EB4331127802EB420201EB8201B9
:100A2000A1F84F00FFE72CE39DF83B0020285ED1A2
:100A3000FFE744F21C10C2F2000001780120884058
:100A400044F21D11C2F200010A7840F22001C2F204
:100A5000000101EB42320892918A1169D2E9021336
:100A6000D2E9003140EA1115D2E902011369B2F866
:100A700014C0D2E900E46FF31F354FF6F076B443AB
:100A800044EA0514C2E900E4A2F814C01361C2E903
:100A9000020100208DF83A00FFE79DF83A00172880
:100AA00024DCFFE70F989DF83A10405C44F21D11DA
:100AB000C2F200010A7840F22001C2F2000101EB0B
:100AC000423144F21C12C2F20002127802EBC2025E
:100AD00001EBC2019DF83A20114481F8E500FFE7DF
:100AE0009DF83A0001308DF83A00D6E7FFE7C8E2FA
:100AF0009DF83B0020285DD1FFE744F21C10C2F2B4
:100B0000000001780120884044F21D11C2F200016A
:100B10000A7840F22001C2F2000101EB4232079252
:100B2000918A1169D2E90213D2E9003140EA1145F4
:100B3000D2E902011369B2F814C0D2E900E46FF3FC
:100B40001F356FF31B4444EA0544C2E900E4A2F8F0
:100B500014C01361C2E9020100208DF83900FFE7DB
:100B60009DF83900172824DCFFE70F989DF839100D
:100B7000405C44F21D11C2F200010A7840F22001EB
:100B8000C2F2000101EB423144F21C12C2F2000237
:100B9000127802EBC20201EBC2019DF83920114428
:100BA00081F8FD00FFE79DF8390001308DF839002C
:100BB000D6E7FFE765E29DF83B00202863D1FFE719
:100BC00044F21C10C2F200000178012000FA01F288
:100BD00044F21D10C2F20000017840F22000C2F27F
:100BE000000000EB41310691888A0869D1E90230A2
:100BF000D1E900C0000F40EA031040EA020508698D
:100C00008A8AD1E9003CD1E902E46FF31F352EF066
:100C1000FF0E2CF0704C4CEA057C4EEA151EC1E923
:100C200002E4C1E9003C8A82086100208DF83800A6
:100C3000FFE79DF83800172824DCFFE70F989DF8A0
:100C40003810405C44F21D11C2F200010A7840F2F3
:100C50002001C2F2000101EB423144F21C12C2F247
:100C60000002127802EBC20201EBC2019DF83820AB
:100C7000114481F81501FFE79DF8380001308DF827
:100C80003800D6E7FFE7FCE19DF83B00202841D182
:100C9000FFE744F21C12C2F20002117801208840E2
:100CA00044F21D13C2F2000393F800C040F2200189
:100CB000C2F2000101EB4C3ECDF814E0BEF814C0C6
:100CC000DEF810C0DEE900C4DEE902C440EA1C28F8
:100CD000DEE9000CDEF81040BEF81450DEE90267D1
:100CE0006FF31F386FF3132646EA0826CEE9026732
:100CF000AEF81450CEF81040CEE9000C0F980078F2
:100D00001B7801EB4331127802EB4202114481F867
:100D10002100FFE7B5E19DF83B0020283FD1FFE728
:100D200044F21C12C2F2000211780120884044F201
:100D30001D13C2F2000393F800C040F22001C2F27A
:100D4000000101EB4C3ECDF810E0BEF814C0DEF817
:100D500010C0DEE900C4DEE902C440EA1C58DEE946
:100D6000000CDEF81040BEF81450DEE902676FF3A5
:100D70001F5646EA0856CEE90267AEF81450CEF880
:100D80001040CEE9000C0F9800781B7801EB43313E
:100D9000127802EB4202114481F82200FFE770E171
:100DA0009DF83B0020283DD1FFE744F21C12C2F21F
:100DB00000021178012000FA01FC44F21D13C2F276
:100DC0000003187840F22001C2F2000101EB403E1E
:100DD000CDF80CE0BEF81400DEF81000DEE90004E7
:100DE000DEE9024040EA0C08DEE9000CDEF81040C3
:100DF000BEF81450DEE9026768F30B07CEE902671C
:100E0000AEF81450CEF81040CEE9000C0F980078E0
:100E10001B7801EB4331127802EB4202114481F856
:100E20002300FFE72DE19DF83B0020285CD1FFE780
:100E300044F21C10C2F2000001780120884044F204
:100E40001D11C2F200010A7840F22001C2F2000135
:100E500001EB42320292918A1169D2E90013D2E980
:100E6000023140EA1135D2E900011369B2F814C029
:100E7000D2E902E46FF31F356FF3173444EA053407
:100E8000C2E902E4A2F814C01361C2E90001002023
:100E90008DF83700FFE79DF83700172823DCFFE7C0
:100EA0000F989DF83710405C44F21D11C2F200010A
:100EB0000A7840F22001C2F2000101EB423344F211
:100EC0001C11C2F2000109785A2211FB02319DF86F
:100ED0003720114481F82906FFE79DF837000130DB
:100EE0008DF83700D7E7FFE7CBE09DF83B002028DF
:100EF00064D1FFE744F21C10C2F200000178012027
:100F000000FA01F144F21D10C2F20000027840F232
:100F10002000C2F2000000EB42320192908AD2E936
:100F200000031369D2E902C0000E40EA032040EA40
:100F30000105D2E90001B2F814C01369D2E902E454
:100F40006FF31F3524F07F4423F00F0343EA15238A
:100F500044EA0564C2E902E4A2F814C01361C2E9DC
:100F6000000100208DF83600FFE79DF836001728B5
:100F700023DCFFE70F989DF83610405C44F21D110A
:100F8000C2F200010A7840F22001C2F2000101EB36
:100F9000423344F21C11C2F2000109785A2211FBBB
:100FA00002319DF83620114481F84706FFE79DF88D
:100FB000360001308DF83600D7E7FFE761E09DF895
:100FC0003B0020285BD1FFE744F21C10C2F2000076
:100FD00001780120884044F21D11C2F200010A7814
:100FE00040F22001C2F2000101EB423100918A8AF5
:100FF000D1E90223D1E900230A6940EA12158A8A5D
:10100000D1E9003CD1E902E408696FF31F354FF6DE
:10101000F076B04340EA0510C1E902E4C1E9003CC2
:101020008A82086100208DF83500FFE79DF83500C1
:10103000172823DCFFE70F989DF83510405C44F239
:101040001D11C2F200010A7840F22001C2F2000133
:1010500001EB423344F21C11C2F2000109785A221A
:1010600011FB02319DF83520114481F86506FFE738
:101070009DF8350001308DF83500D7E7FFE700E037
:10108000FFE710B0BDE8F08170B59BB01A908DF805
:1010900067101A9810B9FFE700F0E8BB40F20900AA
:1010A000C2F200000078913801461891172800F22A
:1010B000DC831899DFE811F0180047007600A600DD
:1010C000CD00F4001B01420169019001B701DE016E
:1010D00005022C0253027A02A102C802EF02160393
:1010E0003D0364038B03B2039DF86700202829D1D8
:1010F000FFE744F21D12C2F20002107840F2200114
:10110000C2F2000101EB40331793988A1869D3E9C2
:10111000020CD3E9000CB3F814C0D3E900E4D3E91E
:101120000256186940F48030C3E90256C3E900E46E
:10113000A3F814C018611A980078127801EB4231B4
:101140008877FFE792E39DF86700202829D1FFE721
:1011500044F21D12C2F20002107840F22001C2F2E5
:10116000000101EB40331693988A1869D3E9020C09
:10117000D3E9000CB3F814C0D3E900E4D3E9025674
:10118000186940F40030C3E90256C3E900E4A3F84B
:1011900014C018611A980078127801EB4231C877B0
:1011A000FFE763E39DF8670020282AD1FFE744F2B8
:1011B0001D12C2F20002107840F22001C2F20001BA
:1011C00001EB40331593988A1869D3E9020CD3E9EF
:1011D000000CB3F814C0D3E900E4D3E9025618694F
:1011E00040F48020C3E90256C3E900E4A3F814C028
:1011F00018611A980078127801EB423181F82000CA
:10120000FFE733E39DF86700202821D1FFE744F290
:101210001D10C2F20000017840F22000C2F200006E
:1012200000EB41311491888A0869D1E90202D1E9C1
:1012300000028A8AD1E9003CD1E902E4086940F45D
:101240000020C1E902E4C1E9003C8A820861FFE7AD
:101250000CE39DF86700202821D1FFE744F21D1020
:10126000C2F20000017840F22000C2F2000000EB60
:1012700041311391888A0869D1E90202D1E900025B
:101280008A8AD1E9003CD1E902E4086940F480107F
:10129000C1E902E4C1E9003C8A820861FFE7E5E2B6
:1012A0009DF86700202821D1FFE744F21D10C2F20B
:1012B0000000017840F22000C2F2000000EB413152
:1012C0001291888A0869D1E90202D1E900028A8A6A
:1012D000D1E9003CD1E902E4086940F40010C1E919
:1012E00002E4C1E9003C8A820861FFE7BEE29DF8A2
:1012F0006700202821D1FFE744F21D10C2F2000050
:10130000017840F22000C2F2000000EB413111915F
:10131000888A0869D1E90202D1E900028A8AD1E902
:10132000003CD1E902E4086940F48000C1E902E42C
:10133000C1E9003C8A820861FFE797E29DF86700F7
:10134000202821D1FFE744F21D10C2F200000178ED
:1013500040F22000C2F2000000EB41311091888A77
:101360000869D1E90202D1E900028A8AD1E9003C88
:10137000D1E902E4086940F40000C1E902E4C1E9EE
:10138000003C8A820861FFE770E29DF86700202830
:1013900021D1FFE744F21D10C2F20000017840F2B3
:1013A0002000C2F2000000EB41310F91888A0869E9
:1013B000D1E90202D1E900028A8AD1E9003CD1E9EF
:1013C00002E4086940F08070C1E902E4C1E9003C30
:1013D0008A820861FFE749E29DF86700202821D151
:1013E000FFE744F21D10C2F20000017840F2200035
:1013F000C2F2000000EB41310E91888A0869D1E900
:101400000202D1E900028A8AD1E9003CD1E902E472
:10141000086940F00070C1E902E4C1E9003C8A8239
:101420000861FFE722E29DF86700202821D1FFE74D
:1014300044F21D10C2F20000017840F22000C2F216
:10144000000000EB41310D91888A0869D1E9020260
:10145000D1E900028A8AD1E9003CD1E902E40869B5
:1014600040F08060C1E902E4C1E9003C8A82086181
:10147000FFE7FBE19DF86700202821D1FFE744F258
:101480001D10C2F20000017840F22000C2F20000FC
:1014900000EB41310C91888A0869D1E90202D1E957
:1014A00000028A8AD1E9003CD1E902E4086940F0EF
:1014B0000060C1E902E4C1E9003C8A820861FFE7FB
:1014C000D4E19DF86700202821D1FFE744F21D10E8
:1014D000C2F20000017840F22000C2F2000000EBEE
:1014E00041310B91888A0869D1E90202D1E90002F1
:1014F0008A8AD1E9003CD1E902E4086940F08050D1
:10150000C1E902E4C1E9003C8A820861FFE7ADE17C
:101510009DF86700202821D1FFE744F21D10C2F298
:101520000000017840F22000C2F2000000EB4131DF
:101530000A91888A0869D1E90202D1E900028A8AFF
:10154000D1E9003CD1E902E4086940F00050C1E96A
:1015500002E4C1E9003C8A820861FFE786E19DF868
:101560006700202821D1FFE744F21D10C2F20000DD
:10157000017840F22000C2F2000000EB41310991F5
:10158000888A0869D1E90202D1E900028A8AD1E990
:10159000003CD1E902E4086940F08040C1E902E47E
:1015A000C1E9003C8A820861FFE75FE19DF86700BE
:1015B000202821D1FFE744F21D10C2F2000001787B
:1015C00040F22000C2F2000000EB41310891888A0D
:1015D0000869D1E90202D1E900028A8AD1E9003C16
:1015E000D1E902E4086940F00040C1E902E4C1E940
:1015F000003C8A820861FFE738E19DF867002028F7
:1016000021D1FFE744F21D10C2F20000017840F240
:101610002000C2F2000000EB41310791888A08697E
:10162000D1E90202D1E900020A69D1E9003CD1E91D
:1016300002E4888A40F00100C1E902E4C1E9003C0B
:101640000A618882FFE711E19DF86700202821D117
:10165000FFE744F21D10C2F20000017840F22000C2
:10166000C2F2000000EB41310691888A0869D1E995
:101670000202D1E900020A69D1E9003CD1E902E4A1
:10168000888A40F00200C1E902E4C1E9003C0A6135
:101690008882FFE7EAE09DF86700202821D1FFE774
:1016A00044F21D10C2F20000017840F22000C2F2A4
:1016B000000000EB41310591888A0869D1E90202F6
:1016C000D1E900020A69D1E9003CD1E902E4888A43
:1016D00040F00400C1E902E4C1E9003C0A618882EB
:1016E000FFE7C3E09DF86700202821D1FFE744F21F
:1016F0001D10C2F20000017840F22000C2F200008A
:1017000000EB41310491888A0869D1E90202D1E9EC
:1017100000020A69D1E9003CD1E902E4888A40F07C
:101720000800C1E902E4C1E9003C0A618882FFE7E0
:101730009CE09DF86700202821D1FFE744F21D10AE
:10174000C2F20000017840F22000C2F2000000EB7B
:1017500041310391888A0869D1E90202D1E9000286
:101760000A69D1E9003CD1E902E4888A40F010001E
:10177000C1E902E4C1E9003C0A618882FFE775E043
:101780009DF86700202821D1FFE744F21D10C2F226
:101790000000017840F22000C2F2000000EB41316D
:1017A0000291888A0869D1E90202D1E900020A6936
:1017B000D1E9003CD1E902E4888A40F02000C1E987
:1017C00002E4C1E9003C0A618882FFE74EE09DF82F
:1017D0006700202821D1FFE744F21D10C2F200006B
:1017E000017840F22000C2F2000000EB413101918B
:1017F000888A0869D1E90202D1E900020A69D1E9BF
:10180000003CD1E902E4888A40F04000C1E902E4EA
:10181000C1E9003C0A618882FFE727E09DF8670084
:10182000202821D1FFE744F21D10C2F20000017808
:1018300040F22000C2F2000000EB41310091888AA2
:101840000869D1E90202D1E900020A69D1E9003C44
:10185000D1E902E4888A40F08000C1E902E4C1E9EC
:10186000003C0A618882FFE700E0FFE71BB070BD23
:1018700083B002908DF80710029808B9FFE79AE04C
:1018800040F20A00C2F200000078A9380146009137
:10189000072800F28F800099DFE801F00415263751
:1018A00048596A7B44F21D10C2F20000017840F2F0
:1018B0002000C2F2000000EB4131487D487D40F03D
:1018C0008000487577E044F21D10C2F200000178F4
:1018D00040F22000C2F2000000EB4131487D487D1B
:1018E00040F04000487566E044F21D10C2F200006E
:1018F000017840F22000C2F2000000EB4131487D47
:10190000487D40F02000487555E044F21D10C2F2B9
:101910000000017840F22000C2F2000000EB4131EB
:10192000487D487D40F01000487544E044F21D10A9
:10193000C2F20000017840F22000C2F2000000EB89
:101940004131487D487D40F00800487533E044F25D
:101950001D10C2F20000017840F22000C2F2000027
:1019600000EB4131487D487D40F00400487522E09D
:1019700044F21D10C2F20000017840F22000C2F2D1
:10198000000000EB4131487D487D40F00200487581
:1019900011E044F21D10C2F20000017840F2200074
:1019A000C2F2000000EB4131487D487D40F001006B
:1019B000487500E0FFE703B07047000080B584B0D1
:1019C00003908DF80B10039808B9FFE736E09DF8F7
:1019D0000B00022832DBFFE703989DF80B1001395A
:1019E000425C0192C9B200F0E1FB014601988842D5
:1019F00024D1FFE744F21C10C2F2000000780C284A
:101A000006D0FFE703989DF80B10FEF7CBFE14E01D
:101A100044F21C10C2F2000000780C2806D1FFE747
:101A200003989DF80B10FFF72FFB05E003989DF836
:101A30000B10FFF71DFFFFE7FFE7FFE704B080BDD6
:101A400080B584B00390039808B9FFE7ADE0039830
:101A5000029000208DF80700029890F84D00A8B180
:101A6000FFE7029890F84D00012804D1FFE701201C
:101A70008DF80700FFE7029890F84D00022804D186
:101A8000FFE702208DF80700FFE7FFE700208DF851
:101A90000600FFE79DF806000C285CDCFFE79DF8D8
:101AA00007109DF8060000EB800248F6FC00C2F229
:101AB0000000009000EB8202517002999DF8062010
:101AC0001144497802EB820200EB82029170029984
:101AD0009DF8062001EB8201497B02EB820200EBBC
:101AE0008202117102999DF8062001EB8201897B27
:101AF00002EB820200EB8202517102999DF80620EE
:101B000001EB8201C97B02EB820200EB8202917140
:101B100002999DF8062001EB8201097C02EB82020A
:101B200000EB8202D1719DF8061001EB810100EB00
:101B300081000F2100F03AFB00999DF8062002EB8E
:101B4000820201EB8201C873FFE79DF806000130B5
:101B50008DF806009EE744F21D10C2F200000078E6
:101B600038B1FFE744F21D11C2F2000100200870F5
:101B700006E044F21D11C2F2000101200870FFE7E7
:101B800044F21D10C2F20000017840F22000C2F2BF
:101B9000000000EB413041F65402C2F201024FF462
:101BA000B361C8230FF048FDFFE704B080BD00001B
:101BB00010B588B094468E4604460C980B990A9A44
:101BC0000794CDF818E0CDF814C004938DF80F20D9
:101BD0008DF80E108DF80D000798029044F2004128
:101BE000C4F2000188423DD0FFE7029844F60001AC
:101BF000C4F2000188423AD0FFE7029844F600415F
:101C0000C4F20001884237D0FFE7029845F2000194
:101C1000C4F20001884234D0FFE7029847F6000181
:101C2000C4F20001884236D0FFE7029847F600412F
:101C3000C4F20001884233D0FFE7029841F200016C
:101C4000C4F20101884208D0FFE7029841F2004146
:101C5000C4F20101884219D027E041F2041009F0D2
:101C6000A5FB24E041F2110009F0A0FB1FE041F2C6
:101C7000120009F09BFB1AE041F2130009F096FBF9
:101C800015E041F2140009F091FB10E041F205105B
:101C900009F08CFB0BE041F21E0009F087FB06E027
:101CA00041F21F0009F082FB01E0FFE7FEE7079821
:101CB0000FF0E8FF079805990FF0C4FF0798049903
:101CC00010F00CF9079806990FF010FF0798002103
:101CD000019110F05FF90199079810F035F9019919
:101CE000079810F00BF90199079810F093F80199F3
:101CF000079810F07DF80798042110F00FF9079865
:101D0000082110F031F99DF80F00C00768B1FFE716
:101D1000079840F2053110F08FF8079840F205312E
:101D2000C0F2050110F09AF8FFE79DF80F00800758
:101D300000280DD5FFE7079840F2073110F07CF836
:101D4000079840F20731C0F2070110F087F8FFE76B
:101D50009DF80F00400700280DD5FFE7079840F2D7
:101D6000063110F069F8079840F20631C0F206011A
:101D700010F074F8FFE79DF80F0000286FD0FFE720
:101D800000208DF80C000798009044F20041C4F246
:101D9000000188423CD0FFE7009844F60001C4F2FD
:101DA0000001884238D0FFE7009844F60041C4F2B1
:101DB0000001884234D0FFE7009845F20001C4F2E8
:101DC0000001884230D0FFE7009847F60001C4F2D6
:101DD0000001884230D0FFE7009847F60041C4F286
:101DE000000188422CD0FFE7009841F20001C4F2C4
:101DF0000101884208D0FFE7009841F20041C4F297
:101E00000101884214D01FE025208DF80C001DE050
:101E100026208DF80C0019E027208DF80C0015E025
:101E200034208DF80C0011E035208DF80C000DE009
:101E300047208DF80C0009E052208DF80C0005E0D9
:101E400053208DF80C0001E0FFE7FEE79DF90C0040
:101E50009DF80E109DF80D2008F03AFAFFE707985C
:101E60000FF0BCFF08B010BDB0B594B094468E46DC
:101E700004461B981A99199A189D1394CDF848E0B6
:101E8000CDF844C08DF843308DF842208DF84110D4
:101E90008DF8400013980FF085FF00208DF83F006B
:101EA0000E908DF837008DF836001398039044F2A9
:101EB0000041C4F20001884244D0FFE7039844F691
:101EC0000001C4F20001884248D0FFE7039844F6BD
:101ED0000041C4F2000188424CD0FFE7039845F26C
:101EE0000001C4F2000188424FD0FFE7039847F693
:101EF0000001C4F2000188425FD0FFE7039847F673
:101F00000041C4F20001884263D0FFE7039841F228
:101F10000001C4F20101884208D0FFE7039841F2B2
:101F20000041C4F2010188423BD05EE046F200402D
:101F3000C4F202000E9007208DF83F0004208DF8B7
:101F4000370054E046F20000C4F202000E90062072
:101F50008DF83F0004208DF8370048E046F200007D
:101F6000C4F202000E9003208DF83F0004208DF88B
:101F700037003CE046F20000C4F202000E9004205C
:101F80008DF83F008DF8370031E046F20000C4F2D2
:101F900002000E9007208DF83F0004208DF83700D6
:101FA00025E046F20040C4F202000E9006208DF8B3
:101FB0003F0005208DF8370019E046F20000C4F21A
:101FC00002000E9001208DF83F0005208DF83700AB
:101FD0000DE046F20000C4F202000E9000208DF8E1
:101FE0003F0005208DF8370001E0FFE7FEE70E987F
:101FF0009DF83F1002F098FB0E989DF83F1002F0FC
:10200000DBFB40200A90129806900020079011995F
:102010000B911399043104910121059108901898AE
:102020000C909DF84300C00718B1FFE7002009900D
:1020300002E001200990FFE70E989DF83F1004AAE6
:1020400002F01CFD0E989DF83F109DF8372002F01D
:102050008FFB9DF84000002800F08C80FFE79DF882
:102060004000000700280ED5FFE70E989DF83F10AE
:102070001022029202F088FC029A0E989DF83F10FE
:1020800002F0A6FCFFE79DF84000C00770B1FFE733
:102090000E989DF83F100822019202F075FC019AFB
:1020A0000E989DF83F1002F093FCFFE71398009004
:1020B00044F20041C4F2000188423CD0FFE700989E
:1020C00044F60001C4F20001884238D0FFE70098CE
:1020D00044F60041C4F20001884234D0FFE7009882
:1020E00045F20001C4F20001884230D0FFE70098B9
:1020F00047F60001C4F20001884230D0FFE70098A3
:1021000047F60041C4F2000188422CD0FFE7009856
:1021100041F20001C4F20101884208D0FFE70098B3
:1021200041F20041C4F20101884214D01FE0462070
:102130008DF836001DE011208DF8360019E00E20D4
:102140008DF8360015E00F208DF8360011E02F20B5
:102150008DF836000DE045208DF8360009E00C20A2
:102160008DF8360005E00B208DF8360001E0FFE722
:10217000FEE7FFE70E989DF83F1002F0E7FA13988C
:1021800080210FF019FE9DF8400048B1FFE79DF94E
:1021900036009DF842109DF8412008F099F8FFE7BD
:1021A00013980FF01BFE14B0B0BD000082B0019078
:1021B0008DF80310FF208DF80200FFE79DF8030063
:1021C000411E8DF8031078B1FFE79DF802000199D8
:1021D0004A1C01920978414042F6B800C0F601005D
:1021E000405C8DF80200E9E79DF8020002B07047FC
:1021F00080B582B046F20040C4F2020006212022DF
:1022000002F07EFB50B3FFE746F20040C4F202004A
:102210000621202202F040FB00200190FFE70198F8
:10222000412805DCFFE7FFE7019801300190F6E760
:1022300040F60000C4F202004FF4807105F07CF912
:1022400041F65301C2F201010020087046F200403D
:10225000C4F20200062102F067FAFFE702B080BD77
:1022600080B582B046F20040C4F20200072120226D
:1022700002F046FB48B3FFE746F20040C4F202001A
:102280000721202202F008FB00200190FFE70198BF
:10229000412805DCFFE7FFE7019801300190F6E7F0
:1022A0000020C4F202004FF4006105F045F941F24C
:1022B0008971C2F201010020087046F20040C4F2A8
:1022C0000200072102F030FAFFE702B080BD0000F3
:1022D000FFE7FEE780B596B040F20040C4F202008E
:1022E0000A90022111914022099205F0BBF8099B46
:1022F0000A9811990022139205F02EF9099B0A9869
:10230000119A139905F076F90A98119980220B9287
:1023100005F0A8F80A980B9B1199139A05F01CF97F
:102320000A980B9B119A139905F064F9139A0020EF
:10233000C4F20200109001210D914FF400630C9340
:1023400005F00AF90C9B1098119A139905F052F9AF
:10235000109807210F914FF400720E9205F082F849
:102360000D9A0E9B1098119905F0F6F80E9B109897
:10237000119A139905F03EF90F9910984FF4806265
:10238000129205F06FF810981199129B139A05F0AC
:10239000E3F81098119A129B139905F02BF91398F2
:1023A0001590FFE71598412805DCFFE7FFE7159832
:1023B00001301590F6E70020C4F202004FF40061EE
:1023C00005F0BAF840F60000C4F2020005900121C1
:1023D0000291002208924FF48073019305F0BCF83B
:1023E000019B059808990222069205F003F90598C9
:1023F000082104914022039205F034F8029A039BCD
:102400000598069905F0A8F8039B0598069A08997F
:1024100005F0F0F8049905988022079205F022F85B
:1024200005980699079B089A05F096F80598069A6C
:10243000079B089905F0DEF808981490FFE71498B8
:10244000412805DCFFE7FFE7149801301490F6E718
:1024500040F60000C4F202004FF4807105F06CF801
:1024600016B080BDFFE7FEE7FFE7FEE7FFE7FEE708
:1024700082B08DF8070000919DF90700B0F1FF3F91
:102480000CDCFFE7009800019DF8071001F00F0138
:102490004EF61452CEF20002885409E00098000172
:1024A0009DF907104EF20042CEF200028854FFE779
:1024B00002B07047BFF34F8F4EF60C51CEF20001C1
:1024C000086800F4E0600422C0F2FA521043086089
:1024D000BFF34F8FFFE7FEE7BFF34F8F4EF60C5170
:1024E000CEF20001086800F4E0600422C0F2FA5263
:1024F00010430860BFF34F8FFFE7FEE7FFE7FEE7FB
:1025000070B5B0B044F21C11C2F20001087801307D
:102510000870C0B20E2819DBFFE744F21C11C2F2AA
:1025200000010020087040F20801C2F200010878A2
:1025300001300870C0B20D2807DBFFE740F2080148
:10254000C2F2000101200870FFE7FFE744F21C100F
:10255000C2F2000000780B2800F38682FFE740F209
:102560000800C2F20000017844F21C12C2F200021C
:10257000137803EB430301EB8301127802EB820330
:1025800048F6FC02C2F2000202F82310007801387B
:1025900001462C910B2800F264822C99DFE811F09F
:1025A0000C0039006A00A200D40005013B016C0157
:1025B0009B01C801F901310244F21C10C2F2000073
:1025C0000178012000FA01F144F21D10C2F200006E
:1025D000027840F22000C2F2000000EB42322B925F
:1025E000908A1069D2E90203D2E9000320EA0105CA
:1025F000D2E902011369B2F814C0D2E900E465F32C
:102600000B0EC2E900E4A2F814C01361C2E9020192
:1026100028E244F21C10C2F2000001780120884038
:10262000C04344F21D11C2F200010A7840F22001B9
:10263000C2F2000101EB42322A92918A1169D2E979
:102640000213D2E9001300EA1135D2E9020113693D
:10265000B2F814C0D2E900E46FF31F356FF3173EF0
:102660004EEA053EC2E900E4A2F814C01361C2E9D3
:102670000201F7E144F21C10C2F2000001780120CF
:1026800000FA01F144F21D10C2F20000027840F29B
:102690002000C2F2000000EB42322992908A1069B9
:1026A000D2E90203D2E90003000E40EA032020EA47
:1026B0000105D2E902011369B2F814C0D2E900E4BD
:1026C0006FF31F352EF07F4E24F00F0444EA1524DB
:1026D0004EEA056EC2E900E4A2F814C01361C2E933
:1026E0000201BFE144F21C10C2F200000178012097
:1026F0008840C04344F21D11C2F200010A7840F242
:102700002001C2F2000101EB42322892918A116944
:10271000D2E90213D2E9003100EA1115D2E902012F
:102720001369B2F814C0D2E900E46FF31F354FF615
:10273000F076B44344EA0514C2E900E4A2F814C0F8
:102740001361C2E902018DE144F21C10C2F20000E3
:10275000017801208840C04344F21D11C2F20001FB
:102760000A7840F22001C2F2000101EB42322792C6
:10277000918A1169D2E90213D2E9003100EA1145C8
:10278000D2E902011369B2F814C0D2E900E46FF390
:102790001F356FF31B4444EA0544C2E900E4A2F884
:1027A00014C01361C2E902015CE144F21C10C2F2E0
:1027B00000000178012000FA01F244F21D10C2F27B
:1027C0000000017840F22000C2F2000000EB41312D
:1027D0002691888A0869D1E90230D1E900C0000F4A
:1027E00040EA031020EA020508698A8AD1E9003C20
:1027F000D1E902E46FF31F352EF0FF0E2CF0704C80
:102800004CEA057C4EEA151EC1E902E4C1E9003C30
:102810008A82086126E144F21C10C2F200000178AD
:1028200001208840C04344F21D11C2F200010A7821
:1028300040F22001C2F2000101EB42322592918A5E
:102840001169D2E90013D2E9021300EA1125D2E995
:1028500000011369B2F814C0D2E902E46FF31F3526
:102860006FF3132E4EEA052EC2E902E4A2F814C05B
:102870001361C2E90001F5E044F21C10C2F200004D
:10288000017801208840C04344F21D11C2F20001CA
:102890000A7840F22001C2F2000101EB4232249298
:1028A000918A1169D2E90013D2E9021300EA1155A5
:1028B000D2E900011369B2F814C0D2E902E46FF35F
:1028C0001F5E4EEA055EC2E902E4A2F814C013617D
:1028D000C2E90001C6E044F21C10C2F20000017817
:1028E000012000FA01F144F21D10C2F2000002784A
:1028F00040F22000C2F2000000EB42322392908AA4
:102900001069D2E90003D2E9023020EA0105D2E9D8
:1029100000011369B2F814C0D2E902E465F30B04B4
:10292000C2E902E4A2F814C01361C2E9000199E00F
:1029300044F21C10C2F20000017801208840C0431C
:1029400044F21D11C2F200010A7840F22001C2F2E5
:10295000000101EB42322292918A1169D2E90013FF
:10296000D2E9023100EA1135D2E900011369B2F867
:1029700014C0D2E902E46FF31F356FF3173444EA51
:102980000534C2E902E4A2F814C01361C2E90001EF
:1029900068E044F21C10C2F200000178012000FA45
:1029A00001F144F21D10C2F20000027840F2200052
:1029B000C2F2000000EB42322192908AD2E9000379
:1029C0001369D2E902C0000E40EA032020EA0105A3
:1029D000D2E90001B2F814C01369D2E902E46FF33E
:1029E0001F3524F07F4423F00F0343EA152344EA04
:1029F0000564C2E902E4A2F814C01361C2E900014F
:102A000030E044F21C10C2F200000178012088403E
:102A1000C04344F21D11C2F200010A7840F22001C5
:102A2000C2F2000101EB423120918A8AD1E90223EE
:102A3000D1E900230A6900EA12158A8AD1E9003C2B
:102A4000D1E902E408696FF31F354FF6F076B04321
:102A500040EA0510C1E902E4C1E9003C8A8208614C
:102A600000E0FFE700F026BC44F21C10C2F20000B8
:102A700000780C2840F06183FFE740F20901C2F2C0
:102A80000001087801300870C0B2A92807DBFFE711
:102A900040F20901C2F2000191200870FFE740F204
:102AA0000900C2F20000017844F21C12C2F20002D6
:102AB000127802EB820348F6FC02C2F2000202F82E
:102AC00023100078913801461F91172800F23383B4
:102AD0001F99DFE811F0180039005A007B009C00B4
:102AE000BD00DE00FF002001410162018301A4015D
:102AF000C501E6010702280249026A028B02AC0204
:102B0000CD02EE020F0344F21D10C2F20000017864
:102B100040F22000C2F2000000EB41311E91888A91
:102B20000869D1E90202D1E900028A8AD1E9003CB0
:102B3000D1E902E4086920F48030C1E902E4C1E986
:102B4000003C8A820861F7E244F21D10C2F20000E4
:102B5000017840F22000C2F2000000EB41311D91EB
:102B6000888A0869D1E90202D1E900028A8AD1E99A
:102B7000003CD1E902E4086920F40030C1E902E434
:102B8000C1E9003C8A820861D6E244F21D10C2F21B
:102B90000000017840F22000C2F2000000EB413159
:102BA0001C91888A0869D1E90202D1E900028A8A67
:102BB000D1E9003CD1E902E4086920F48020C1E9B0
:102BC00002E4C1E9003C8A820861B5E244F21D10CA
:102BD000C2F20000017840F22000C2F2000000EBD7
:102BE00041311B91888A0869D1E90202D1E90002CA
:102BF0008A8AD1E9003CD1E902E4086920F4002086
:102C0000C1E902E4C1E9003C8A82086194E244F22D
:102C10001D10C2F20000017840F22000C2F2000054
:102C200000EB41311A91888A0869D1E90202D1E9A1
:102C300000028A8AD1E9003CD1E902E4086920F463
:102C40008010C1E902E4C1E9003C8A82086173E2B4
:102C500044F21D10C2F20000017840F22000C2F2DE
:102C6000000000EB41311991888A0869D1E902021C
:102C7000D1E900028A8AD1E9003CD1E902E408697D
:102C800020F40010C1E902E4C1E9003C8A82086135
:102C900052E244F21D10C2F20000017840F220001E
:102CA000C2F2000000EB41311891888A0869D1E92D
:102CB0000202D1E900028A8AD1E9003CD1E902E4AA
:102CC000086920F48000C1E902E4C1E9003C8A827D
:102CD000086131E244F21D10C2F20000017840F2B6
:102CE0002000C2F2000000EB41311791888A086988
:102CF000D1E90202D1E900028A8AD1E9003CD1E996
:102D000002E4086920F40000C1E902E4C1E9003CE2
:102D10008A82086110E244F21D10C2F200000178BC
:102D200040F22000C2F2000000EB41311691888A87
:102D30000869D1E90202D1E900028A8AD1E9003C9E
:102D4000D1E902E4086920F08070C1E902E4C1E938
:102D5000003C8A820861EFE144F21D10C2F20000DB
:102D6000017840F22000C2F2000000EB41311591E1
:102D7000888A0869D1E90202D1E900028A8AD1E988
:102D8000003CD1E902E4086920F00070C1E902E4E6
:102D9000C1E9003C8A820861CEE144F21D10C2F212
:102DA0000000017840F22000C2F2000000EB413147
:102DB0001491888A0869D1E90202D1E900028A8A5D
:102DC000D1E9003CD1E902E4086920F08060C1E962
:102DD00002E4C1E9003C8A820861ADE144F21D10C1
:102DE000C2F20000017840F22000C2F2000000EBC5
:102DF00041311391888A0869D1E90202D1E90002C0
:102E00008A8AD1E9003CD1E902E4086920F0006037
:102E1000C1E902E4C1E9003C8A8208618CE144F224
:102E20001D10C2F20000017840F22000C2F2000042
:102E300000EB41311291888A0869D1E90202D1E997
:102E400000028A8AD1E9003CD1E902E4086920F055
:102E50008050C1E902E4C1E9003C8A8208616BE16B
:102E600044F21D10C2F20000017840F22000C2F2CC
:102E7000000000EB41311191888A0869D1E9020212
:102E8000D1E900028A8AD1E9003CD1E902E408696B
:102E900020F00050C1E902E4C1E9003C8A820861E7
:102EA0004AE144F21D10C2F20000017840F2200015
:102EB000C2F2000000EB41311091888A0869D1E923
:102EC0000202D1E900028A8AD1E9003CD1E902E498
:102ED000086920F08040C1E902E4C1E9003C8A822F
:102EE000086129E144F21D10C2F20000017840F2AD
:102EF0002000C2F2000000EB41310F91888A08697E
:102F0000D1E90202D1E900028A8AD1E9003CD1E983
:102F100002E4086920F00040C1E902E4C1E9003C94
:102F20008A82086108E144F21D10C2F200000178B3
:102F300040F22000C2F2000000EB41310E91888A7D
:102F40000869D1E90202D1E900020A69D1E9003C2D
:102F5000D1E902E4888A20F00100C1E902E4C1E974
:102F6000003C0A618882E7E044F21D10C2F20000D2
:102F7000017840F22000C2F2000000EB41310D91D7
:102F8000888A0869D1E90202D1E900020A69D1E917
:102F9000003CD1E902E4888A20F00200C1E902E4A1
:102FA000C1E9003C0A618882C6E044F21D10C2F209
:102FB0000000017840F22000C2F2000000EB413135
:102FC0000C91888A0869D1E90202D1E900020A69F4
:102FD000D1E9003CD1E902E4888A20F00400C1E98B
:102FE00002E4C1E9003C0A618882A5E044F21D10B8
:102FF000C2F20000017840F22000C2F2000000EBB3
:1030000041310B91888A0869D1E90202D1E90002B5
:103010000A69D1E9003CD1E902E4888A20F008007D
:10302000C1E902E4C1E9003C0A61888284E044F21B
:103030001D10C2F20000017840F22000C2F2000030
:1030400000EB41310A91888A0869D1E90202D1E98D
:1030500000020A69D1E9003CD1E902E4888A20F043
:103060001000C1E902E4C1E9003C0A61888263E022
:1030700044F21D10C2F20000017840F22000C2F2BA
:10308000000000EB41310991888A0869D1E9020208
:10309000D1E900020A69D1E9003CD1E902E4888A59
:1030A00020F02000C1E902E4C1E9003C0A61888205
:1030B00042E044F21D10C2F20000017840F220000C
:1030C000C2F2000000EB41310891888A0869D1E919
:1030D0000202D1E900020A69D1E9003CD1E902E427
:1030E000888A20F04000C1E902E4C1E9003C0A619D
:1030F000888221E044F21D10C2F20000017840F203
:103100002000C2F2000000EB41310791888A086973
:10311000D1E90202D1E900020A69D1E9003CD1E912
:1031200002E4888A20F08000C1E902E4C1E9003CA1
:103130000A61888200E0FFE7BBE040F20A01C2F2C8
:103140000001087801300870C0B2B12807DBFFE742
:1031500040F20A01C2F20001A9200870FFE740F224
:103160000A00C2F20000017844F21C12C2F200020E
:10317000127802EB820348F6FC02C2F2000202F867
:1031800023100078A93801460691072800F28F80A5
:103190000699DFE801F00415263748596A7B44F2A6
:1031A0001D10C2F20000017840F22000C2F20000BF
:1031B00000EB4131487D487D00F07F00487577E0A5
:1031C00044F21D10C2F20000017840F22000C2F269
:1031D000000000EB4131487D487D00F0BF0048759C
:1031E00066E044F21D10C2F20000017840F22000B7
:1031F000C2F2000000EB4131487D487D00F0DF0065
:10320000487555E044F21D10C2F20000017840F20A
:103210002000C2F2000000EB4131487D487D00F003
:10322000EF00487544E044F21D10C2F2000001783E
:1032300040F22000C2F2000000EB4131487D487DA1
:1032400000F0F700487533E044F21D10C2F20000B0
:10325000017840F22000C2F2000000EB4131487DCD
:10326000487D00F0FB00487522E044F21D10C2F2D8
:103270000000017840F22000C2F2000000EB413172
:10328000487D487D00F0FD00487511E044F21D10B6
:10329000C2F20000017840F22000C2F2000000EB10
:1032A0004131487D487D00F0FE00487500E0FFE7B1
:1032B000FFE7FFE744F21C10C2F200000490007820
:1032C00000EB800148F6FC00C2F20000059000EB24
:1032D00081001321FEF76AFF049A0599127802EB28
:1032E000820201EB8201C87441F20040C4F2010085
:1032F0002F902F9841F20001C4F2010188423FD182
:10330000FFE741F28971C2F201010120087000203B
:10331000C4F202004FF4006104F016F900202E9070
:10332000FFE72E98032805DCFFE7FFE72E98013022
:103330002E90F6E746F20040C4F202000290072108
:103340000391202201F0A8FA0298039944F21C127A
:10335000C2F20002127802EB820348F6FC02C2F2CB
:10336000000202EB8303002201F066FB029803993E
:10337000142201F03DFC0298039901F0E7F93AE0CC
:1033800041F65301C2F201010120087040F600002D
:10339000C4F202004FF4807104F0D6F800202D90A2
:1033A000FFE72D98032805DCFFE7FFE72D980130A4
:1033B0002D90F6E744F21C10C2F20000007800EBFA
:1033C000800148F6FC00C2F2000000EB810346F2E7
:1033D0000040C4F20200009006210191002201F099
:1033E0002BFB00980199142201F002FC009801992E
:1033F00001F0ACF9FFE730B070BD000080B54FF4CC
:10340000406007F0D3FF40F6014007F0CFFF40F6E1
:10341000024007F0CBFF40F6034007F0C7FF40F63D
:10342000044007F0C3FF4FF4805007F0BFFF41F2A4
:10343000010007F0BBFF41F2020007F0B7FF41F2C5
:10344000030007F0B3FF41F2050007F0AFFF41F2C0
:10345000041007F0ABFF41F2051007F0A7FF40F69C
:10346000154007F0A3FF40F6164007F09FFF80BD10
:10347000FFE7FEE784B000200390029043F60001CE
:10348000C4F20201086840F480300860FFE7039846
:103490000130039043F60000C4F20200006800F41B
:1034A00000300290FFE702990020009039B9FFE751
:1034B0000398B0F5006018BF01200090FFE7009866
:1034C000C0070028E3D1FFE743F60000C4F2020082
:1034D0000068800300280CD4FFE7FFE743F60000F4
:1034E000C4F2020000688003002801D4FFE7F5E77A
:1034F000FFE743F64001C4F20201086840F0805043
:10350000086047F20001C4F20001086840F440403E
:10351000086043F60801C4F2020108680860086800
:1035200040F400400860086840F4A050086043F68A
:103530000401C4F2020146F21940C0F640100860CE
:1035400043F60001C4F20201086840F08070086090
:10355000FFE743F60000C4F2020000688001002883
:1035600001D4FFE7F5E747F20001C4F20001086863
:1035700040F480300860FFE747F20400C4F2000026
:103580000068C003002801D4FFE7F5E747F2000117
:10359000C4F20001086840F400300860FFE747F219
:1035A0000400C4F2000000688003002801D4FFE793
:1035B000F5E743F60801C4F202010868019001989A
:1035C00020F003000190019840F002000190019862
:1035D0000860FFE743F60800C4F202000068000735
:1035E000002801D4FFE7F5E704B0704780B582B04A
:1035F000009000980138B0F1807F03D3FFE70120ED
:10360000019019E0009801384EF21401CEF2000149
:1036100008604FF0FF300F21FEF72AFF4EF218012D
:10362000CEF20001002008604EF21002CEF200023D
:10363000072111600190FFE7019802B080BD0000F2
:1036400080B50DF05FF880BD8DB040F20670C0F619
:103650000810049040F20120C0F2034003900020C3
:103660000290019043F60800C4F202000068C0F323
:1036700081000C900C98009040B1FFE70098012861
:103680000ED0FFE70098022814D04AE040F204016F
:10369000C2F2000142F20040C0F2F40008604AE0C9
:1036A00040F20401C2F2000147F64000C0F27D1072
:1036B000086040E043F60400C4F20200016801F033
:1036C0003F010B910168C1F388110A91016801F46F
:1036D0004032022101EBD2310891006800F48000F1
:1036E00009900998B0F5800F06D1FFE747F6400032
:1036F000C0F27D10079005E042F20040C0F2F400F5
:103700000790FFE707980B99B0FBF1F00A9948433F
:103710000899B0FBF1F040F20401C2F20001086028
:1037200009E040F20401C2F2000142F20040C0F29E
:10373000F4000860FFE743F60800C4F202000068E6
:10374000C0B200090690069901A8405C059040F2BD
:103750000401C2F200010868059AD04008600DB06B
:103760007047000080B582B04EF68851CEF200015D
:10377000086840F47000086043F60001C4F20201DA
:10378000086840F001000860FFE743F60000C4F25B
:10379000020000688007002801D4FFE7F5E743F640
:1037A0000800C4F20200006800F00C00082840F095
:1037B0008080FFE7FFE700200190FFE701984F2896
:1037C00005D8FFE7FFE7019801300190F6E743F6DF
:1037D0000801C4F2020108680090009820F0F0008F
:1037E0000090009840F08000009000980860002051
:1037F0000190FFE701984F2805D8FFE7FFE7019800
:1038000001300190F6E743F60801C4F202010868AE
:103810000090009820F0F0000090009840F0900098
:1038200000900098086000200190FFE701984F2861
:1038300005D8FFE7FFE7019801300190F6E743F66E
:103840000801C4F2020108680090009820F0F0001E
:103850000090009840F0A0000090009808600020C0
:103860000190FFE701984F2805D8FFE7FFE701988F
:1038700001300190F6E743F60801C4F2020108683E
:103880000090009820F0F0000090009840F0B00008
:1038900000900098086000200190FFE701984F28F1
:1038A00005D8FFE7FFE7019801300190F6E7FFE751
:1038B000FFE7C82000F04CFA43F60801C4F2020109
:1038C000086820F00300086043F60002C4F2020218
:1038D00010684FF6FF73CFF6F6631840106010685B
:1038E00020F48020106000200860FFE743F6080005
:1038F000C4F202000068012008B9FFE7F6E743F6CA
:103900000401C4F2020143F21000C2F20040086058
:1039100043F60C01C4F202010020086007F0E8FE43
:1039200002B080BD80B582B040F20040C4F2000019
:1039300001210DF0A9FA00B3FFE740F20040C4F204
:103940000000009001210DF095FA41F28870C2F25A
:1039500001000190017841F2C060C2F20100FEF75F
:103960002DF800980DF0E8F90199002008704FF645
:10397000A601C2F200010870FFE702B080BD00009E
:1039800080B582B040F60040C4F2000001210DF085
:103990007BFA00B3FFE740F60040C4F2000000905D
:1039A00001210DF067FA41F65200C2F201000190C8
:1039B000017841F28A70C2F20100FDF7FFFF009822
:1039C0000DF0BAF90199002008704FF6A701C2F274
:1039D00000010870FFE702B080BD000080B541F231
:1039E0000040C4F2000001210DF04EFA50B1FFE793
:1039F00041F20040C4F2000001210DF03BFAFEF755
:103A00007FFDFFE780BD000080B58AB00422ADF8DD
:103A10000C200021ADF80E10ADF810102F200590ED
:103A2000ADF812108DF818101D2006F051FC40F270
:103A30000040C4F200000290012101910DF010FA43
:103A4000019902980DF016FA02980DF07FF90AB06C
:103A500080BD000080B58EB040F60000C4F20000CA
:103A600006900DF075F8069860210191ADF81E10D2
:103A700000210491ADF820103122ADF81C20142251
:103A80000992ADF822108DF8281007A90DF068F9F9
:103A90000499069801220592ADF82C20ADF82E105D
:103AA000ADF83010ADF83210ADF83410ADF8361076
:103AB0000BAA02920CF038FE049906980A2203928F
:103AC0000CF0DCFF019A049906980CF091FF049A1F
:103AD000069811460CF0F6FF029A059906980CF02C
:103AE00023FE039A059906980CF0C8FF05990698DD
:103AF00070220CF07DFF049A059906980CF0E2FF05
:103B0000059906980DF0DEF906980CF003FE06986C
:103B10000DF01CF90EB080BD80B58CB00420029071
:103B2000ADF8140000200190ADF81600ADF81800B3
:103B30002F210791ADF81A008DF8200040F60040C3
:103B4000C4F20000049005A90DF00AF90199029A47
:103B5000322006F0BDFB0498012103910DF080F99D
:103B6000039904980DF086F904980DF0EFF80CB065
:103B700080BD000080B58AB06320ADF80C00002045
:103B80000090ADF80E00ADF810007D210591ADF864
:103B900012008DF8180041F20040C4F200000290BB
:103BA00003A90DF0DDF800993720022206F090FB02
:103BB0000298012101910DF053F9019902980DF03D
:103BC00059F902980DF0C2F80AB080BD80B582B0F4
:103BD00041F20000C4F2010040F20531C0F20501DB
:103BE0000EF04CF900284ED0FFE741F20000C4F27D
:103BF0000100019040F20531C0F205010EF02EF9EE
:103C000001980EF037F841F28873C2F201031A7876
:103C1000511C197041F2C061C2F20101885441F295
:103C20008970C2F20100007860BBFFE741F2887042
:103C3000C2F201000078C7281CDCFFE740F22441F3
:103C4000C4F20001002008604FF6A600C2F2000096
:103C50000078C00768B9FFE74FF6A601C2F200017D
:103C60000120087040F20040C4F200000DF06EF830
:103C7000FFE706E041F28871C2F2010100200870FE
:103C8000FFE7FFE7FFE702B080BD000080B582B02C
:103C900041F20040C4F2010040F20531C0F20501DA
:103CA0000EF0ECF800284ED0FFE741F20040C4F2DD
:103CB0000100019040F20531C0F205010EF0CEF88E
:103CC00001980DF0D7FF41F65203C2F201031A78B2
:103CD000511C197041F28A71C2F20101885441F6F7
:103CE0005300C2F20100007860BBFFE741F65200CA
:103CF000C2F201000078C7281CDCFFE740F624412F
:103D0000C4F20001002008604FF6A700C2F20000D4
:103D10000078C00768B9FFE74FF6A701C2F20001BB
:103D20000120087040F60040C4F200000DF00EF8CB
:103D3000FFE706E041F65201C2F2010100200870DF
:103D4000FFE7FFE7FFE702B080BD0000FFE7FEE707
:103D500082B0019000200090FFE70098019901EBEC
:103D60008101B0EB410F05D2FFE7FFE7009801307A
:103D70000090F2E702B0704780B588B007900691D6
:103D80000798418EADF80810D0F82E0001900698E3
:103D9000D0F80E000490069880690390FFE7FFE7D3
:103DA0000798C06B0590FFE70598002852D0FFE701
:103DB0000598007A0146009170B1FFE7009801383C
:103DC00003280BD3FFE700980438032826D3FFE726
:103DD0000098072801D1FFE7FFE736E0049805992E
:103DE0004968884212D0FFE70498B0B9FFE703980A
:103DF00005994968884210D1FFE7069800F108014B
:103E000001A80622FCF720FA38B1FFE7FFE7FFE739
:103E10000798059900F0C4F8FFE716E004980599A3
:103E20004968884210D1FFE7069800F1080101A80F
:103E30000622FCF709FA38B1FFE7FFE7FFE707982A
:103E4000059900F009F8FFE7FFE7FFE7059800682C
:103E50000590A9E708B080BD80B582B001900091BF
:103E60000098007A06280BD1FFE7FFE7FFE70098EC
:103E700000F0BEF80098026901980221904717E00F
:103E80000098007B012807DBFFE7FFE7FFE70198C9
:103E9000009900F085F80AE0FFE7FFE70198009934
:103EA000043102F0AFF9009964200873FFE7FFE7DF
:103EB00002B080BD80B584B0039002910192FFE70B
:103EC000FFE7FFE7FFE7FFE7FFE7029858B1FFE7EB
:103ED0000298006838B1FFE7019820B1FFE7019828
:103EE000006808B9FFE728E00398C06B0090FFE77F
:103EF000009810B3FFE7009840680299096888426B
:103F000016D1FFE7029800884FF6A96188420ED1CA
:103F1000FFE7019800884FF6A961884207D0FFE7C4
:103F2000FFE7FFE70398009900F00AF8FFE7FFE7D3
:103F3000FFE7009800680090DAE704B080BD000059
:103F400080B584B0039002910298007A01460191F5
:103F500090B1FFE70198013803280FD3FFE70198DC
:103F60000438022813D3FFE70198062804D0FFE79E
:103F70000198072802D000E0FFE70EE0029800F069
:103F800037F80298026903980221904705E00299E8
:103F900006200872FFE7FFE7FFE704B080BD0000DE
:103FA00080B582B0019000910099487B0130487340
:103FB000009802690198022190470098407B0A28E6
:103FC0000ADBFFE700990720087200994FF416708A
:103FD0004881FFE7FFE708E0009800F009F8009843
:103FE0000269019801219047FFE702B080BD0000FF
:103FF00081B00090FFE7FFE7009820B1FFE700994C
:1040000000200872FFE7002001B0704780B58AB039
:10401000089007918DF81B200593FFE7089858B981
:10402000FFE7FFE742F68020C0F601000DF0C2FF77
:10403000FFE700200990C3E0FFE7FFE7079858B9C2
:10404000FFE7FFE742F69F20C0F601000DF0B2FF48
:10405000FFE700200990B3E0FFE736204FF49A71A4
:104060004FF4207206F054FA0390039828B9FFE742
:10407000FFE7FFE700200990A2E0FFE703984089EF
:1040800080084C2801D8FFE7FFE7FFE79DF81B00F9
:10409000032805D1FFE707984079032814D1FFE7EB
:1040A0000798807940B9FFE740F20C01C2F20001A5
:1040B000086801300860FFE740F20C00C2F200001F
:1040C000006807990860FFE7FFE7FFE7039840688B
:1040D000029002984FF49A71FCF7ABF80299012014
:1040E000087002994870089890F834000299887016
:1040F0000798006805F0AAF8029948609DF81B002F
:10410000082819D0FFE79DF81B00042814D0FFE70A
:104110009DF81B0007280FD0FFE79DF81B00032820
:104120000FD1FFE707984079052805D0FFE70798EA
:104130004079042805D1FFE7089840680299C860D3
:10414000FFE70020ADF81200FFE7BDF812000528D8
:1041500010D8FFE70898BDF81220104490F82E0000
:10416000029911440877FFE7BDF812000130ADF85D
:104170001200EAE7029948F26320C6F25330C1F810
:10418000EC00029800F1F00100203522012300F03C
:104190000BF9ADF80600BDF806000299F0319DF864
:1041A0001B2000F02BF9ADF80600059828B1FFE7B9
:1041B000BDF8060005990880FFE703980990FFE71E
:1041C00009980AB080BD000080B58AB009900998AE
:1041D000406A089000208DF81F00FFE7FFE708996C
:1041E0000020C8610898062100F086FA099808990D
:1041F00001220DF11203FFF709FF05900598002831
:1042000069D0FFE7059840680390FFE7FFE7BDF836
:1042100012000399F0313922022300F0C5F8ADF8FD
:104220001200BDF812000399F031099A928D00F046
:1042300037F9ADF81200BDF812000399F0313722BA
:10424000032300F0B1F8ADF8120000208DF81B0038
:10425000FFE79DF81B00022816D8FFE7BDF8120003
:104260000399F0319DF81B3040F21002C2F20002B7
:10427000D25C00F0C3F8ADF81200FFE79DF81B0018
:1042800001308DF81B00E4E7BDF812000399F0310E
:10429000059A00F02BF9FFE7FFE744F22010C2F285
:1042A000000000680599099A42F6C41CC0F6010C8A
:1042B0006B46C3F804C01A6042F6C812C0F6010289
:1042C00043230DF0EDFAFFE7FFE7059806F024FD24
:1042D000FFE7FFE702E0FFE7FFE7FFE708988079E5
:1042E000FE2805DCFFE70899887901308871FFE72F
:1042F00008988079052806DCFFE708988179012075
:104300008840029002E03C200290FFE702984FF4C0
:104310007A714843ADF81C00BDF81C0000F2F310A0
:1043200044F6D351C1F2620150FB01F1480900EBA0
:10433000D17008990881FFE7FFE79DF91F000AB0D7
:1043400080BD000080B584B003900398406A02905D
:10435000029808B9FFE725E00298407901460191EB
:1043600080B1FFE701980338032804D3FFE70198E1
:104370000A2808D1FFE7029900208871039800F00D
:10438000EFF80FE00EE0FFE7029840790D2801DB1F
:10439000FFE7FFE7FFE70299002088710398FFF726
:1043A00013FFFFE704B080BD83B0ADF80A000191B0
:1043B0008DF803208DF80230FFE7BDF80A009DF864
:1043C000021008440230452801D3FFE7FFE7FFE76A
:1043D0009DF803000199BDF80A20531CADF80A307E
:1043E00088549DF802000199BDF80A20531CADF8CD
:1043F0000A308854BDF80A0003B0704783B0ADF8A6
:104400000A0001918DF80320FFE7BDF80A00442857
:1044100001D3FFE7FFE7FFE79DF803000199BDF82F
:104420000A20531CADF80A308854BDF80A0003B0C6
:104430007047000083B0ADF80A0001910092FFE7D9
:10444000BDF80A000430452801D3FFE7FFE7FFE786
:104450009DF803000199BDF80A20531CADF80A30FD
:104460008854BDF802000199BDF80A20531CADF82C
:104470000A3088540098000A0199BDF80A20531C9C
:10448000ADF80A30885400980199BDF80A20531CF1
:10449000ADF80A308854BDF80A0003B07047000038
:1044A00083B0ADF80A000191ADF80220FFE7BDF836
:1044B0000A000230452801D3FFE7FFE7FFE79DF838
:1044C00003000199BDF80A20531CADF80A30885446
:1044D000BDF802000199BDF80A20531CADF80A305E
:1044E0008854BDF80A0003B07047000080B584B05E
:1044F000ADF80E00029101920299BDF80E20501CF9
:10450000ADF80E00FF208854FFE7BDF80E004428E8
:1045100007D3FFE7BDF80E1000208907009041B1D6
:10452000FFE7BDF80E100020442938BF012000909D
:10453000FFE70098C00748B1FFE70299BDF80E20D9
:10454000501CADF80E0000208854DEE70198BDF83D
:104550000E10F03189B206F0C9FC04B080BD000035
:1045600080B58CB00B900B98406A0A90FFE7FFE78C
:104570000A980321049100F0BFF8049A0B980A9955
:104580000DF11A03FFF742FD0790079800287AD033
:10459000FFE7079840680590BDF81A000599F031CB
:1045A00039220223FFF700FFADF81A00BDF81A0008
:1045B0000599F0314FF41072FFF772FFADF81A0051
:1045C000BDF81A000599F03132220423FFF7ECFE02
:1045D000ADF81A00BDF81A0003900598F03002906B
:1045E0000A98C06904F032FE029902460398FFF768
:1045F00021FFADF81A00BDF81A000599F0313722F5
:104600000323FFF7D1FEADF81A0000208DF8230038
:10461000FFE79DF82300022816D8FFE7BDF81A002F
:104620000599F0319DF8233040F21002C2F20002E9
:10463000D25CFFF7E3FEADF81A00FFE79DF8230018
:1046400001308DF82300E4E7BDF81A000599F03138
:10465000079AFFF74BFF44F22010C2F200000068F7
:1046600007990B9A6B461A6042F6C812C0F601020F
:1046700043230DF091F88DF82700079806F04CFBC6
:10468000FFE7FFE705E0FFE7FFE7FF208DF82700E2
:10469000FFE70A988079FE2805DCFFE70A99887908
:1046A00001308871FFE70A988079092807DCFFE765
:1046B0000A9880794FF47A714843019003E042F2FE
:1046C00010700190FFE70198ADF82400BDF82400B8
:1046D00000F2F31044F6D351C1F2620150FB01F134
:1046E000480900EBD1700A990881FFE7FFE79DF9BF
:1046F00027000CB080BD000082B001908DF803103F
:104700009DF803000199497988420AD0FFE79DF896
:10471000030001994871019900208871019908816D
:10472000FFE702B07047000082B001908DF80310DF
:1047300001989DF8031001EB410100EBC1010869EC
:1047400020F00100086102B07047000082B00190C3
:104750008DF8031001989DF8031001EB410100EB67
:10476000C101086940F00100086102B07047000013
:1047700083B002908DF807108DF8062002989DF8FE
:10478000071001EB410100EBC100006900900098A7
:1047900020F0606000909DF80610009840EA4160AB
:1047A0000090009802999DF8072002EB420201EB6D
:1047B000C201086103B0704782B001908DF8031008
:1047C00001989DF8031001EB410100EBC10108695C
:1047D00020F00100086101989DF8031001EB4101F0
:1047E00000EBC1010020086101999DF8032002EB54
:1047F000420201EBC201486101999DF8032002EBDE
:10480000420201EBC201886101999DF8032002EB8D
:10481000420201EBC201C86101999DF8032002EB3D
:10482000420201EBC201086201989DF8031001EBFE
:10483000410100EBC101212048629DF803000328DB
:1048400011DCFFE79DF8031001EB4100400001F08F
:10485000020100EB41013D2000FA01F20199886854
:104860001043886015E09DF8030004388DF80300BC
:104870009DF8031001EB4100400001F0020100EB44
:1048800041013D2000FA01F20199C8681043C86057
:10489000FFE702B07047000083B002908DF8071068
:1048A00000929DF80700032811DCFFE700989DF8AF
:1048B000072002EB4201490002F0020201EB420133
:1048C00000FA01F2029988681043886015E09DF8AB
:1048D000070004388DF8070000989DF8072002EBC8
:1048E0004201490002F0020201EB420100FA01F22A
:1048F0000299C8681043C860FFE703B07047000022
:1049000084B002908DF8071000929DF807000328EC
:1049100018DCFFE70298006800999DF8073003EB68
:104920004302520003F0020302EB430291400842AB
:1049300004D0FFE701208DF80F0020E000208DF863
:104940000F001CE09DF8070004388DF8070002985E
:10495000406800999DF8073003EB4302520003F0D2
:10496000020302EB43029140084204D0FFE701201A
:104970008DF80F0003E000208DF80F00FFE79DF891
:104980000F0004B07047000083B002908DF807104C
:104990000092009880280CD0FFE7009A02989DF8BA
:1049A000071001EB410100EBC101086910430861E8
:1049B0000BE0009A02989DF8071001EB410100EB13
:1049C000C101486A10434862FFE703B07047000026
:1049D00083B002908DF8071000929DF8070003281D
:1049E00011DCFFE700989DF8072002EB4201490027
:1049F00002F0020201EB420100FA01F2029988681A
:104A00001043886015E09DF8070004388DF8070012
:104A100000989DF8072002EB4201490002F00202D3
:104A200001EB420100FA01F20299C8681043C86024
:104A3000FFE703B07047000083B002908DF80710C5
:104A40008DF8062000939DF8060050B1FFE700980E
:104A500002999DF8072002EB420201EBC2010862B5
:104A600009E0009802999DF8072002EB420201EB51
:104A7000C201C861FFE703B07047000084B0039033
:104A80008DF80B10019203989DF80B1001EB41017A
:104A900000EBC101486A20F00400486201980068F8
:104AA00003999DF80B2002EB420201EBC2018861E1
:104AB0000198806803999DF80B2002EB420201EBFC
:104AC000C201C8610198C06903999DF80B2002EBEF
:104AD000420201EBC201486103989DF80B1001EB03
:104AE000410100EBC10000690090009848F23F715D
:104AF000CFF6FC7108400090019A10699169126A22
:104B000040EA800010430143009808430090009859
:104B100003999DF80B2002EB420201EBC2010861F0
:104B20000198406860B9FFE703989DF80B1001EB0E
:104B3000410100EBC101086940F4007008611DE00B
:104B40000198406801280CD1FFE703989DF80B10ED
:104B500001EB410100EBC101086920F4007008611C
:104B60000BE003989DF80B1001EB410100EBC10134
:104B7000086940F400400861FFE7FFE70198C0685A
:104B800060B9FFE703989DF80B1001EB410100EBC2
:104B9000C101086940F4806008610BE003989DF84A
:104BA0000B1001EB410100EBC101086920F48060AA
:104BB0000861FFE70198406960B9FFE703989DF835
:104BC0000B1001EB410100EBC101086940F480705A
:104BD00008610BE003989DF80B1001EB410100EB1D
:104BE000C101086920F480700861FFE704B07047D4
:104BF00083B002908DF807100092009802999DF8FA
:104C0000072002EB420201EBC201486103B070478A
:104C100083B002900191FFE79DF80400800708B17E
:104C2000FFE7FFE7FFE7019800900298C06800687F
:104C30000099086000980299C968086003B070473D
:104C400083B001900198C06800680090009880B11E
:104C5000FFE7009800680199C9680860FFE79DF8C0
:104C60000000800708B1FFE7FFE7FFE70098029028
:104C700005E0FFE7FFE7FFE700200290FFE702986B
:104C800003B0704781B00020009048F20002C4F2E7
:104C9000020211680091009948F20F13CFF63053C9
:104CA00019400091009941F4803100910099116000
:104CB00048F20401C4F20201086048F20801C4F29B
:104CC0000201086048F20C01C4F20201086048F2D7
:104CD0001802C4F202021168009100994FF6417364
:104CE00019400091009941F08001009100991160F4
:104CF00048F21C01C4F20201086048F23C01C4F20F
:104D00000201086840F40270086048F20C11C4F215
:104D1000020108686022C0F202021043086048F2F3
:104D20001011C4F20201086840F40310086049F24F
:104D30001801C4F2020108680090009843F623723B
:104D4000CFF6DE0210400090009840F0087000900E
:104D50000098086049F20001C4F20201086800905E
:104D600000987D22CFF600021040009046F200002D
:104D7000C0F2C12000900098086001B070470000A8
:104D800080B582B040F21940019006F037FB0198DF
:104D900006F020FB00F0C4FE02B080BD82B001909E
:104DA0000020009001980090FFE7009828B1FFE7ED
:104DB000FFE7009801380090F7E702B07047000065
:104DC00084B003908DF80B104FF0FF3001909DF8E8
:104DD0000B0001460091052843D80099DFE801F057
:104DE0003B370F030933039840686FF35F3001903E
:104DF00038E003984068C0F30C40019032E003981B
:104E00000068C0F30D4001900198052817D3FFE713
:104E100001980438019048F20000C4F202000068D2
:104E2000800100280AD5FFE7039800788006002853
:104E300004D5FFE7019804300190FFE702E000206D
:104E40000190FFE70EE00398806801900AE0039864
:104E50008068019006E003980068C0F3C3000190E9
:104E600000E0FFE7019804B07047000089B00890A7
:104E70000020079006900590049003900898B0F5E4
:104E8000E00F1FD1FFE741F26C60C2F20100019018
:104E90004FF6A800C2F2000000900520069040F2F4
:104EA000F45005904FF480100490019849F21001DD
:104EB000C4F202010860019844F23011C2F200010C
:104EC000086021E04FF61400C2F2000001904DF698
:104ED0005020C2F2000000900520069040F2F450ED
:104EE00005904FF00040049044F2F4500390019874
:104EF00049F20C01C4F202010860019844F22C113D
:104F0000C2F200010860FFE744F22411C2F200017E
:104F10000020086044F22811C2F2000108600790E6
:104F2000FFE707980699884229D2FFE70198079979
:104F300000EB01100290049802990860039802990E
:104F40004860009A0798059900FB01200299886043
:104F5000079806990139884208D2FFE70198079916
:104F600000EB011010300299C86003E0019802992B
:104F7000C860FFE7FFE7079801300790D1E709B065
:104F80007047000080B501F0EFF800F06FFF80BDC2
:104F900085B00390029100200190009044F22C1003
:104FA000C2F200000068C0780006002804D5FFE7C0
:104FB00000208DF81300C6E00398002868D0FFE7B2
:104FC00044F22C10C2F2000000684078000600286D
:104FD00059D4FFE744F22C10C2F200000068407878
:104FE000C00700284FD0FFE744F22C10C2F20000A7
:104FF000006840788007002845D5FFE744F22C1070
:10500000C2F2000000680068C0F30D4000900098F4
:105010000438009048F20000C4F2020000688001E9
:1050200000280ED5FFE744F22C10C2F20000006801
:1050300000788006002804D5FFE70098043000902F
:10504000FFE700980299884204D9FFE700208DF815
:10505000130078E000200190FFE701980099884252
:1050600010D2FFE744F22C10C2F200000068806802
:105070000199405C0399019A8854FFE70198013037
:105080000190EAE703E000208DF813005BE0FFE702
:1050900044F22C10C2F2000001684FF0004008609A
:1050A00049F21400C4F202000068000600280DD581
:1050B000FFE749F21401C4F202018020086049F2BE
:1050C0000801C4F2020100200860FFE744F22C103E
:1050D000C2F20000006840794006002808D5FFE7CA
:1050E00044F22C11C2F200010868C068086026E092
:1050F00044F22C10C2F2000000684079000600283B
:105100000BD5FFE749F20C00C4F20200006844F23C
:105110002C11C2F20001086010E044F22C11C2F21E
:105120000001086849F20002C4F20202126802F0AB
:105130007C0200EB920010300860FFE7FFE70120DF
:105140008DF81300FFE79DF8130005B070470000CD
:1051500086B0049003910020029044F23010C2F215
:1051600000000068C0780006002804D5FFE7002092
:105170008DF8170093E0039840F2F551884204D36C
:10518000FFE700208DF8170089E00498C0B1FFE721
:1051900000200290FFE70298039988420FD2FFE7B0
:1051A0000498029A805C44F23011C2F2000109684E
:1051B00089688854FFE7029801300290EBE7FFE727
:1051C000039944F23010C2F2000002685160026894
:1051D000116841F0405111600168086840F00040DA
:1051E000086049F21400C4F20200016801F00401F1
:1051F0000191006800F020000090019818B9FFE7C5
:10520000009878B1FFE701980099084349F214012A
:10521000C4F20201086049F20401C4F20201002054
:105220000860FFE744F23010C2F2000000688078A6
:10523000C006002808D5FFE744F23011C2F2000191
:105240000868C068086026E044F23010C2F200002E
:1052500000688078800600280BD5FFE749F210002F
:10526000C4F20200006844F23011C2F2000108608A
:1052700010E044F23011C2F20001086849F2000265
:10528000C4F20202126802F07C0200EB92001030BD
:105290000860FFE7FFE701208DF81700FFE79DF8A2
:1052A000170006B07047000080B590B04FF4406022
:1052B00006F07CF840F6014006F078F840F602402F
:1052C00006F074F840F6034006F070F840F6064029
:1052D00006F06CF840F6044006F068F80020C4F2CE
:1052E00002000390002109914FF48072019202F0B4
:1052F000B9F8019B0398099A02210B9102F02CF94D
:10530000019B0398099903220A9202F073F941F272
:105310000E1006F04BF84FF4C0004FF0C06105F0DE
:105320007DFF4FF4000006F015F90398099A0B9BD6
:10533000194602F011F9039809990A9A0B9B02F099
:1053400059F90398099A0B990423029302F004F97E
:10535000029B039809990A9A02F04CF90398099A5A
:105360000B998023049302F0F7F80398049B0999A2
:105370000A9A02F03FF903980B9A0B210E9102F062
:1053800071F8029A03980E9902F06CF80398049A47
:105390000E9902F067F8099A0B9940F20040C4F2A6
:1053A000020007904FF40063059302F0D5F8059BC7
:1053B000079809990A9A02F01DF90798099A0B991A
:1053C0004FF48053069302F0C7F8069B079809999B
:1053D0000A9A02F00FF90798099A0B994FF40053B3
:1053E000089302F0B9F80798089B09990A9A02F005
:1053F00001F9059A07980E9902F034F8069A079871
:105400000E9902F02FF80798089A0E9902F02AF8E0
:10541000099A0B9B40F60000C4F202000D90194659
:1054200002F09AF809990A9A0B9B0D9802F0E2F89B
:10543000099A0B990D9810230C9302F08DF8099995
:105440000A9A0C9B0D9802F0D5F8099A0B990D98C1
:1054500020230F9302F080F809990A9A0D980F9B68
:1054600002F0C8F80B9A0D980E9901F0FBFF0C9A08
:105470000D980E9901F0F6FF0D980E990F9A01F014
:10548000F1FF10B080BD000080B58CB0ADF82C00ED
:105490000A910992002002900890079006900590CA
:1054A0000490ADF80E008DF80D008DF80C0000F0A2
:1054B00091FB80B9FFE74FF6FF70C0F28F00FFF756
:1054C0006DFC00F087FB28B9FFE79DF80C008DF814
:1054D0002F0020E3FFE7FFF7D5FBBDF82C00059078
:1054E0000598012840F09C80FFE7FFE7002101229A
:1054F0000DF10E03084600F035FCBDF80E0000F07B
:105500000400ADF80E00049801300490FFE7BDF8E8
:105510000E100020019049B9FFE704994FF6FF7281
:105520000020914238BF01200190FFE70198C00799
:105530000028DBD1FFE704984FF6FF71884205D1C0
:10554000FFE79DF80C008DF82F00E4E200220492A2
:105550004FF48050ADF80E0002200DF10E031146FD
:1055600000F000FC8DF80D009DF80D0028B9FFE754
:105570009DF80C008DF82F00CDE2FFE700210122FD
:105580000DF10E03084600F0EDFBBDF80E0000F033
:105590002000ADF80E00049801300490FFE7BDF83C
:1055A0000E100020009049B9FFE704994FF6FF72F2
:1055B0000020914238BF01200090FFE70098C0070B
:1055C0000028DBD1FFE704984FF6FF71884205D130
:1055D000FFE79DF80C008DF82F009CE2002104915C
:1055E0001F220DF10E03084600F0BCFBBDF80E00B3
:1055F0004007002804D5FFE74FF40060059002E063
:1056000000200590FFE7BDF80E008007002801D5B7
:10561000FFE704E0059840F480400590FFE725E0AF
:10562000059800F40060C008ADF80E00059800F47D
:105630008041BDF80E0040EA5100ADF80E00022096
:1056400000220DF10E03114600F08CFB8DF80D00C9
:105650009DF80D0028B9FFE79DF80C008DF82F008C
:1056600059E26FF07F40FFF799FBFFE748F2000136
:10567000C4F2020108680890089820F4B04008902D
:10568000059A089810430890089808609DF829002A
:10569000400700281BD5FFE748F20001C4F20201D1
:1056A000086840F48060086049F21801C4F2020101
:1056B00008680890089820F0806008900A9800F028
:1056C000806208981043089008980860FFE7099ADC
:1056D00048F20401C4F2020108681043086044F271
:1056E0003810C2F200000078C007C8B3FFE744F2E8
:1056F0003810C2F200004068079048F20001C4F27E
:105700000201086808900798069008984FF67F7283
:10571000CFF6FF521040089006988022C0F2002277
:1057200010400690069A0898104308900898086060
:1057300049F21801C4F2020108680890079806901F
:10574000089820F0C0000890069800F44070069079
:10575000069A089840EA9200089008980860FFE7C7
:1057600044F23810C2F200000078800700281AD5F1
:10577000FFE744F23810C2F200008068069049F258
:105780000001C4F202010868089008984FF6FF7201
:10579000CFF6FE0210400890069A08981043089031
:1057A00008980860FFE744F23810C2F20000007861
:1057B000400700281AD5FFE744F23810C2F2000073
:1057C000C068069049F20001C4F20201086808901E
:1057D00008984CF2FF02CFF6017210400890069A2A
:1057E00008981043089008980860FFE744F23810C2
:1057F000C2F2000000780007002818D5FFE744F245
:105800003810C2F200000069069049F20001C4F2AB
:1058100002010868089008984CF202029043089030
:10582000069A08981043089008980860FFE744F229
:105830003810C2F200000078C00600281AD5FFE731
:1058400044F23810C2F200004069069049F2180193
:10585000C4F2020108680890089843F6E772CFF690
:10586000DE5210400890069A089810430890089855
:105870000860FFE744F23810C2F2000000788006AA
:10588000002838D5FFE744F23810C2F200008069E2
:10589000079049F21801C4F20201086808900798BD
:1058A000069008984FF6FB72CFF6FF621040089002
:1058B00006980422C0F2001210400690069A08983A
:1058C000104308900898086049F20001C4F20201F0
:1058D0000868089007980690089820F080000890C3
:1058E000069800F080000690069A089810430890E9
:1058F00008980860FFE744F23810C2F20000007810
:105900004006002817D5FFE744F23810C2F2000025
:10591000C069079048F21C01C4F2020108680890AF
:1059200008986FF310000890079A089810430890A1
:1059300008980860FFE744F23810C2F200000078CF
:105940000006002834D5FFE744F23810C2F2000008
:10595000006A079048F21801C4F202010868089032
:105960000798069008984FF64172104008900698E4
:1059700090430690069A089810430890089808608B
:1059800049F28001C4F20201086808900798069065
:10599000089820F077000890069800F4EE400690F2
:1059A000069A089840EA1220089008980860FFE7D5
:1059B00044F23810C2F200004078C00758B1FFE747
:1059C00044F23810C2F20000406A48F20801C4F202
:1059D00002010860FFE744F23810C2F2000040788C
:1059E000800700280BD5FFE744F23810C2F2000010
:1059F000806A48F20C01C4F202010860FFE744F239
:105A00003810C2F2000040784007002818D5FFE7A0
:105A100044F23810C2F20000C06A079048F2040154
:105A2000C4F2020108680890089840F2DE729043C0
:105A30000890079A08981043089008980860FFE7B4
:105A400044F23810C2F200004078000700281AD54E
:105A5000FFE744F23810C2F20000006B079048F2F2
:105A60000001C4F202010868089008984DF68F52B0
:105A7000CFF6FE7210400890079A089810430890DD
:105A800008980860FFE744F23810C2F2000040783E
:105A9000C006002817D5FFE744F23810C2F2000014
:105AA000406B079048F20001C4F2020108680890B8
:105AB000089820F440000890079A0898104308902E
:105AC00008980860FFE744F23810C2F200004078FE
:105AD0008006002817D5FFE744F23810C2F2000014
